:020000040800F2
:10000000D0710020993B0008DD020008DF020008E3
:10001000E3020008E7020008EB020008000000000D
:10002000000000000000000000000000EF020008D7
:10003000F102000800000000F3020008F5020008C9
:10004000B33B0008B33B0008B33B0008B33B0008D8
:10005000B33B0008B33B00089D020008AD02000856
:10006000B33B0008B33B0008B33B0008B33B0008B8
:10007000B33B0008B33B0008B33B0008B33B0008A8
:10008000B33B0008B33B0008B33B0008B33B000898
:10009000B33B0008B33B0008B33B0008B33B000888
:1000A000B33B000887020008B33B0008B33B0008DD
:1000B0005102000867020008B33B0008B33B000888
:1000C000B33B0008B33B0008B33B0008B33B000858
:1000D000B33B0008BD020008073A0008B33B000824
:1000E000B33B0008B33B0008B33B0008B33B000838
:1000F000B33B0008B33B0008B33B0008B33B000828
:10010000B33B0008B33B0008B33B0008B33B000817
:10011000B33B0008B33B0008B33B0008B33B000807
:10012000B33B0008B33B0008B33B0008B33B0008F7
:10013000DFF80CD009F0DAFA004800472302000883
:10014000D071002000B58BB000200A90202102A8B9
:1001500008F0B0FE002001900090202202A902F0D9
:10016000E1FE02220AA9002002F0DCFE9DF8270031
:10017000324908709DF828000002314908809DF836
:100180002900098808442E49088008460088C828A4
:1001900001DDC82008809DF809002A4908709DF8F3
:1001A0000F00372101EB4000C0F1FF0226A101A89A
:1001B00009F0FAFA9DF8040006F05AFA9DF81000CA
:1001C0002249087000212148007807F058FB9DF86B
:1001D00012201DA1684609F0E7FA0BB000BD10B56A
:1001E00003F08EFB10BD10B54FF4165003F0BAFBB0
:1001F00007F0CBFF4FF4E13007F03CFF05F0F2FBD6
:100200004FF4967003F04FFB03F030FA03F012FA4C
:1002100002F0F2FD02F0FEFF03F0E5FA08F073FDD4
:1002200010BD03F003FBFFF7DEFFFFF7D8FFFFF77A
:1002300089FF01E002F0AEFDFCE700003300002082
:100240004C0000201B00002025630000220000203D
:1002500010B50121880705F02AFA18B10121880795
:1002600005F036FA10BD10B50121234805F01FFA3C
:1002700040B122480078401C2049087001211E48E6
:1002800005F026FA10BD10B501211D4805F00FFA42
:1002900018B101211A4805F01BFA10BD10B5012054
:1002A00004F0F2FA012004F000FB10BD10B50220AA
:1002B00004F0EAFA022004F0F8FA10BD10B540F29A
:1002C0002551104804F028FA38B10E4804F0A4F97A
:1002D000C4B2204605F098FB00BF10BD704700BFB8
:1002E000FEE700BFFEE700BFFEE700BFFEE7704786
:1002F0007047704770470000000400403100002044
:10030000002C0140003801400CB500200190009005
:100310006C48006840F480306A49086000BF694852
:10032000006800F4003000900198401C0190009893
:1003300018B90198B0F5A06FF1D16248006800F4D7
:10034000003010B10120009001E0002000900098E2
:10035000012843D15C48006840F010005A49086009
:100360000846006820F0030008600846006840F076
:100370000200086053484068524948600846406897
:1003800048600846406840F480604860084640681D
:1003900020F47C1048600846406840F4E81048604B
:1003A0000846006840F08070086000BF454800685B
:1003B00000F000700028F9D04248406820F00300A7
:1003C000404948600846406840F00200486000BF6D
:1003D0003C48406800F00C000828F9D10CBD10B56D
:1003E000FFF792FF10BD10B53648006840F00100DD
:1003F000344908600846406834490840314948603B
:1004000008460068324908402E49086008460068DE
:1004100020F4802008600846406820F4FE00486010
:100420004FF41F008860FFF7DAFF4FF000602949A2
:10043000086010BD10B5002100200022214B5B6830
:1004400003F00C0121B1042906D0082928D107E0C6
:10045000214B224C236027E01F4B204C236023E0DC
:10046000184B5B6803F47010164B5B6803F4803222
:10047000022303EB904022B9194B4343174C2360EE
:100480000DE0104B5B6803F4003323B1144B43437E
:10049000124C236003E0104B4343104C236003E0F5
:1004A0000D4B0E4C236000BF00BF064B5B68C3F3CF
:1004B00003130C4CE15C094B1B68CB40074C2360D9
:1004C00010BD000000100240002002400000FFF8B4
:1004D000FFFFF6FE08ED00E000127A0000000020A9
:1004E00000093D000400002010B5FC4800780128F8
:1004F00005D101225E21104606F04BFB04E00022EC
:100500005E21012006F045FB10BD2DE9F04F97B0AC
:100510000446002628210DA808F0CCFC00256BE03D
:100520000A2094FBF0F100FB1147384608F09CFDCF
:100530000DA941F825000A2094FBF0F4002C5AD1B3
:10054000E7490D9808F052FD0C90E6490E9808F026
:100550004DFD0B90E4490F9808F048FD0A904FF0CC
:100560007E51109808F010FD0990DF49119808F0AD
:100570000BFD0890DB49129808F006FD0690D8495B
:10058000139808F001FD0490D849149808F0FCFC79
:100590000290D749159808F0F7FC0190D5491698B4
:1005A00008F0F2FC0090019908F096FC834602994D
:1005B00008F092FC0390049908F08EFC05900699CF
:1005C00008F08AFC0790089908F086FC8246099991
:1005D00008F082FC81460A9908F07EFC80460B995F
:1005E00008F07AFC07460C9908F076FC064630467F
:1005F00017B0BDE8F08F6D1C92E72DE9FE4F00208B
:1006000009E0BD4A411C32F81110BC4A126811447D
:10061000BA4A1160401CBA4909788842F1DBB748F0
:100620000068B7490978B0FBF1F0B64908800020AE
:10063000B2490860B3480088AF49C887C88FFFF740
:1006400064FF02900120032300905621029A06F0D5
:100650008AFB002021E0A84C431C34F81330A94C3D
:1006600024881A1B002A01DB134600E05342A24DE6
:10067000441C35F81440A34D2D88611B002901DB73
:100680000C4600E04C426343DC179F4DD5E9006502
:100690009B196C419C4D18C5401C994909788842AA
:1006A000D9DB97480078401EC31706463246964964
:1006B00003C908F0B5FB804608F0E4FC044609F0E5
:1006C000FBFC824608F0F2FC90490880084600884E
:1006D0008949A1F84000B1F84000FFF716FF0190EA
:1006E0000120032300905721019A06F03CFB0021D2
:1006F000854A116051600020844908808149088042
:10070000BDE8FE8F38B582480078401C80490870EB
:1007100008460078012802D0022875D11AE07D48E9
:10072000007848B97C4800687C4908600120794914
:10073000087000207A4908707A48007800EB800041
:10074000794901EB402000F5F0625C21012006F0C0
:100750009BFA6AE000206E4908707148007848B939
:100760006D4800687149086000206A4908700120DE
:100770006B4908706D490968684A1268881A002830
:1007800001DB014600E041428AB25D490978491C1B
:10079000594B23F811205A490978491C1A4632F856
:1007A0001100FFF7B2FE0446012000905448007883
:1007B00000F12D0103232246012006F0D4FA50480F
:1007C0000078401C4E490870084600784A49088065
:1007D000FFF713FF5348007800EB8000524901EB0C
:1007E000402000F5E0625C21012006F04DFA44480B
:1007F00000781E2809DB1E2041490870002259217B
:10080000012006F0EFF905E00EE001225921104623
:1008100006F0E8F9012000230090394802785021C1
:10082000012006F05AFA00E000BF00BF38BD10B545
:1008300020213F4803F023FB012805D040213C48FC
:1008400003F01DFB012809D13A480078012805D1A1
:10085000002038490870FFF755FF0EE0202134488A
:1008600003F00DFB012808D04021314803F007FBBD
:10087000012802D001202F49087010BD08B52E496B
:100880002E4802F084FF2D480078C0B12B48007834
:100890002B490870284800784870012000230090F8
:1008A000264802785121012006F017FA0120002382
:1008B0000090214802785221012006F00EFA08BD6E
:1008C00038B515480068FFF720FE044601200323D1
:1008D00022465821009006F046FA38BD89000020D3
:1008E00000007A440000C8420000204100401C463D
:1008F0000050C347002474497C5600203800002073
:10090000360000203C000020580000203E0000205F
:100910004E000020180000207C0000204000002035
:1009200019000020220000208B000020440000203D
:100930000018014021000020350000203400002074
:100940002B00002010B500225F21012006F021F9C4
:1009500001226021104606F01CF910BD10B50122DD
:100960005F21104606F015F900226021012006F0F3
:1009700010F910BD10B5FA480088C82803DD012021
:10098000F849087002E00020F64908700122F54994
:10099000022002F0D7FA10BD10B5F3480068401CE1
:1009A000F149086008460068322803DB0020EF495F
:1009B000087006E0EC480068322802DA0120EB49B2
:1009C0000870E9480068B0F5967F02DD3220E649FC
:1009D0000860FFF7CFFFE6480088012812D1E548FC
:1009E000007810B9FFF7BAFF04E0E248007808B1D8
:1009F000FFF7A8FFFFF764FFFFF740FFFFF717FFC0
:100A0000FFF772FD0020DC49087010BD10B501220F
:100A10000221032006F00FF910BD70B505460C4603
:100A2000082D04D1072C02D1642005F051FE70BDC1
:100A3000704770477047FEB505460E4614460020C5
:100A400002900190022D25D1042E23D1642C00D3D5
:100A500004B322460421022006F0CBF90120002332
:100A6000224606210090022006F037F9372000EBDD
:100A70004400C0F1FF02C1A102A808F095FE9DF854
:100A8000080005F0F5FDE0B20290012202A907205E
:100A900002F058FA062D01D0072D22D10E2E20D1BA
:100AA000642C00D3ECB122460E21062006F0A1F9F9
:100AB00022460E21072006F09CF92246AFA101A88C
:100AC00008F072FE05F0A4FE9DF8040005F0E8FDB4
:100AD00005F0BEFEE0B20190012201A90A2002F059
:100AE00031FAFEBDF8B504460E461546022C0AD171
:100AF000A3480560012000230090A148042102685A
:100B0000022006F0EAF8F8BD10B59E48007800EB28
:100B100080009D4901EB40226F21012006F0B4F8CE
:100B20009848007800EB8000974901EB402000F5E1
:100B3000D0627021012006F0A7F89248007800EBFF
:100B40008000914901EB402000F580727121012065
:100B500006F09AF86D2405E0A1B20122104606F0D5
:100B600018F8641C722CF7DB10BD10B585480078AE
:100B700000EB8000844901EB40226A21012006F04D
:100B800083F88048007800EB80007F4901EB40202B
:100B900000F5C0626B21012006F076F879480078F4
:100BA00000EB8000784901EB402000F580726C2159
:100BB000012006F069F8682405E0A1B20122104680
:100BC00005F0E7FF641C6D2CF7DB10BDF8B505469A
:100BD00000260020009001241FE00027611EC1EBC9
:100BE000011202EBC111C03188B20222694602F043
:100BF00099F9002008E0295C1DF80020914201D1FC
:100C00007F1C00E002E0401C0228F4DB00BF022F42
:100C100001D10020F8BD761C641C51480088844234
:100C2000DBDD4F480088864201D10120F2E700BF9A
:100C3000F0E756480078102801DC012070470020BA
:100C4000FCE738B5002003E00021514A1154401C54
:100C50000228F9DB002004E000214E4A22F810109F
:100C6000401C2028F8DB2D2405E0A1B24AA2012077
:100C700006F00AF8641C4B2CF7DB47A24D2101203B
:100C800006F002F8012000231A465021009006F0D9
:100C900024F8012000231A465121009006F01DF887
:100CA000012000231A465221009006F016F8012078
:100CB00000231A465621009006F00FF80120002369
:100CC0001A465721009006F008F833A25D21012052
:100CD00005F0DAFF002031490870314908703149C8
:100CE00008700120304908700020224908702F49FF
:100CF00008702F4908802F4908802248007800EBAF
:100D00008000214901EB402000F5E0625C210120D8
:100D100005F0BAFF01225921104605F063FF38BDE6
:100D200010B5A4B09021684608F0C4F80C480088BB
:100D300000128DF800000A4800788DF801003E226C
:100D40001D490DF1020008F09CF81C4800880012B3
:100D50008DF84000194800788DF8410000203FE0F0
:100D60004C0000201B0000206000002089000020B3
:100D70002E0000204E0000203100002025630000DE
:100D800054000020220000208B0000202A000020B8
:100D90002B0000207C560020000000001A000020DC
:100DA00018000020190000201E000020360000203E
:100DB0003C0000203E000020DC55002068000020A0
:100DC000FE4931F810100A12410042310DF801209D
:100DD000FA4911F81020410043310DF80120401C60
:100DE000F74909788842EBDDF448C08F00128DF88E
:100DF0008100F24890F83E008DF88200EF48B0F88C
:100E0000400000128DF88300EC4890F840008DF807
:100E10008400EC4800788DF88500EB4800788DF868
:100E20008600EA480168CDF887108188ADF88B10FC
:100E300080798DF88D00E6490988C1EB011202EB3B
:100E4000C111803188B28F22694602F07BF8E048F8
:100E50000088401C84B220128DF80000E0B28DF8AA
:100E6000010002226946002002F06CF80020D949F6
:100E70000860D948007800EB8000D84901EB402099
:100E800000F5C0720521012005F0FEFED048008863
:100E9000C82802DBC820CE490880CD480088C82871
:100EA00004DACB480088401CC949088024B010BD32
:100EB0002DE9F84306460F4690469946012E7CD10F
:100EC0005D2FFCD1C648007801280AD100225B21A1
:100ED00005F0B1FEFFF724FFFFF7B3FE0020C04985
:100EE0000870C04880F8009000780A2805DD32229A
:100EF0004D21012007F092F804E000224D2101204D
:100F000007F08CF80020B84908704021B74807F076
:100F1000D1FFB44802784146B44807F0B2FF002040
:100F20000090B0480178B14802F01AFEB04908803C
:100F30000846008800128DF80000084600788DF8F9
:100F40000100FFF776FE05466846FFF73FFE0446C0
:100F50005DB9012C09D14021A44807F0ABFF002066
:100F60009F490870FFF701FE2FE0012D0AD14CB90F
:100F700040219E4807F09EFF002099490870FFF726
:100F8000C3FD22E040219B4807F094FF954802787A
:100F90004146984807F075FF42464D21012005F073
:100FA00073FE01208E49087001225321104605F07E
:100FB00019FE01225921104600E007E005F012FE5B
:100FC00001225B21104605F00DFE00BFBDE8F8834D
:100FD00010B5C8B0902124A807F06CFF864800889F
:100FE0007B49098888422FDA9021684607F062FF22
:100FF0008148048823E0C4EB041101EBC411803163
:1010000088B28F22694601F08DFF7B48008800126C
:101010008DF80000784800788DF80100611EC1EB62
:10102000011202EBC111803188B28F22694601F0B2
:1010300089FF71480088401C6F490880641C64481F
:1010400000888442D7DB00BF61490988491EC1EB93
:10105000011202EBC111803188B28F2224A901F064
:1010600071FF5B480088401E594908800846008887
:1010700000128DF89000084600788DF89100022249
:1010800024A9002001F05EFF48B010BD10B5524801
:10109000007800EB8000514901EB402000F5207200
:1010A0005D21042005F0F0FD4B48007800EB800046
:1010B0004A4901EB402000F180025E21042005F046
:1010C000E3FD4548007800EB8000444901EB4022F5
:1010D0005F21042005F0D8FD3F48007800EB800038
:1010E0003E4901EB402000F580726021042005F0AC
:1010F000CBFD5A2405E0A1B20122042005F049FDF0
:10110000641C612CF7DB10BD10B53348007800EB90
:101110008000324901EB40226321042005F0B4FD38
:101120002D48007800EB80002C4901EB402000F5B1
:1011300080726521042005F0A7FD612405E0A1B2BD
:101140000122042005F025FD641C662CF7DB10BD90
:101150000146002209E0885C612805DB885C7A286A
:1011600002DC885C20388854521C885C0028F2D14C
:1011700070472DE9F047ADF5B16D4FF000091F4AFA
:1011800007CA0DF27C5307C340210DF23C5007F013
:1011900091FE20210DF21C5007F08CFE80210DF2F3
:1011A0009C4007F087FE80210DF21C4007F082FE74
:1011B0008021E7A807F07EFE902121E07C560020E8
:1011C00036000020340000203500002023000020DD
:1011D0004C00002064000020220000208B00002032
:1011E0001A0000202A00002030000020DC550020DA
:1011F000680000209C5500205200002004A1000837
:10120000C3A807F057FEFD490988491EC1EB01122A
:1012100002EBC111803188B28F22C3A901F082FE96
:101220002021BBA807F046FE20220DF20E31BBA8FC
:1012300007F027FE2021B3A807F03CFEDDF893035A
:10124000B390BDF89703ADF8D0029DF899038DF8DF
:10125000D2020DF27C539DF893039DF894139DF8F0
:101260009523CDE90603CDE904219DF897139DF858
:1012700098039DF89923E2A3CDE90032CDE902015C
:10128000BBABE1A2E2A10DF29C4008F08DFA002078
:10129000B2909DF84E03B290B2980002B2909DF8C1
:1012A0004F13B2980844B2900020B190B0909DF8CE
:1012B0008D03B190BDF8C4024FF6FF7101EA002022
:1012C000B190BDF8C4029DF88E13084480B2B1906D
:1012D0000020AF90AE909DF88F03AF90BDF8BC0298
:1012E0004FF6FF7101EA0020AF90BDF8BC029DF8F7
:1012F0009013084480B2AF900020AD909DF8910308
:10130000AD900020AC909DF89203AC90BDF8C40263
:10131000FFF7FBF8B090BDF8BC02FFF7F6F8AE900F
:10132000AE9807F0DCFE05460E46B09807F0D7FEF3
:10133000074688460DF27C529DF8B002BFA39DF887
:10134000B412CDE90913CDE90B02BDA0CDE90656D3
:101350000890BDA0CDE902780490BCA00090BEA288
:10136000C0A10DF21C40B29B08F01EFA0DF27C5099
:10137000C6A3C9A2CAA10090E7A808F015FA4FF4C5
:10138000F07134A807F096FD20212CA807F092FDFB
:1013900078210EA807F08EFD002014E041004431B2
:1013A000C3AA515C2CAA11542CA9095C090211543E
:1013B0002CA90A5C41004531C3AB595C11442CAAED
:1013C0001154411CC8B2B2998142E7DC002720E0E9
:1013D0002CA9C85D07F051FE0EA941F8270051F86D
:1013E0002700B14907F002FE0EA941F8270051F885
:1013F000270007F074FE05460DF27C50CDE9005140
:10140000029034A901EB07107A1CA8A108F0CCF9CE
:101410007F1CB298B842DBDC07F0DBFC824607F0A9
:101420000DF88246BAF1140F12D0A348007800EBF1
:101430008000A24901EB402000F5A0626421042055
:1014400005F022FCFFF760FE0DF5B16DBDE8F087F9
:101450009948007800EB8000984901EB402000F5A6
:1014600060726421042005F00FFC9348007800EBC3
:101470008000924901EB402000F580726521042034
:1014800005F002FC01226121042005F082FB01220B
:101490006421042005F07DFB01226521042005F074
:1014A00078FBBBA8FFF754FE85A3BBAA86A10DF26B
:1014B0003C5008F079F900240DE00DF23C50005D3D
:1014C000834901F814000020012101EB4401804A06
:1014D0005054601C84B20DF23C50005D0028ECD1E9
:1014E0007B4901F81400012101EB4401784A505472
:1014F00073A000909DF84D339DF84C2375A10DF21B
:101500001C5008F051F972490DF21C5007F033FAE3
:1015100082460DF21C5006F096FF8246BAF1140F77
:1015200001D109F101090DF29C4007F0CEFC85B212
:1015300029460DF29C4007F0D3F84FF0FF3007F03A
:1015400053F80DF21C4007F0C0FC85B229460DF29D
:101550001C4007F0C5F84FF0FF3007F045F8E7A84A
:1015600007F0B3FC85B22946E7A807F0B9F84FF0B9
:10157000FF3007F039F8002510E034A901EB051021
:1015800007F0A3FC86B234A901EB0510314607F041
:10159000A7F84FF0FF3007F027F86D1CB298A8426B
:1015A000EBDC012007F00EF88246BAF1140F01D1EE
:1015B00009F10109B9F1020F0FD13F48007800EBA2
:1015C00080003E4901EB402000F590626421042038
:1015D00005F05AFBFFF798FD0EE03748007800EB66
:1015E0008000364901EB402000F580626421042030
:1015F00005F04AFBFFF788FD00BF25E752000020F9
:10160000446174653A0000004E616D653A00000067
:1016100025732C25732C25732C253032642F25300F
:1016200032642F253032642D253032643A25303231
:10163000643A2530326425730000000052483A00B5
:1016400054454D503A00000053443A0041766572CB
:101650006167653A00000000416E696D616C733A24
:101660000000000025732C25642C25732C252E33B7
:101670006C662C25732C252E336C662C25732C253B
:10168000642C25732C2564257300000056616C754D
:1016900065286D4C2900000054696D6573000000D9
:1016A00025732C257325730000007A4425642C25AE
:1016B0002E336C6625730000220000208B00002072
:1016C0002E435356000000002573257300000000D0
:1016D000BE560020256425642573000010B51B2428
:1016E00005E0A1B20122032005F07CFA641C202C45
:1016F000F7DB01221146032005F074FA01220F21C5
:10170000032005F06FFA01221621032005F06AFA82
:1017100001221721032005F065FA01221921032077
:1017200005F060FA10BD10B5AFF2F4022A210320D3
:1017300005F0AAFAAFF200122B21032005F0A4FA5B
:10174000AFF20C122C21032005F09EFA282405E0AC
:10175000A1B20022032005F01CFA641C2D2CF7DB3B
:1017600010BD10B5AFF230122321032005F08CFA22
:10177000AFF23C122421032005F086FAAFF24812A2
:101780002521032005F080FAAFF254122621032010
:1017900005F07AFA212405E0A1B20022032005F029
:1017A000F8F9641C282CF7DB10BD10B5C2B04FF45B
:1017B000807102A807F07EFB00240AE0C4EB04114C
:1017C00001EBC411803188B28F2202A901F0BAFB6B
:1017D000641CFE4800888442F0DB002407E0211DE1
:1017E000AFF2AC12032005F04FFA601CC4B20A2C11
:1017F000F5DB01200023024610210090032005F0B4
:101800006CFA01200023024611210090032005F00C
:1018100064FA012000231A4613210090032005F0EA
:101820005CFA002408E004F13001AFF2F412032066
:1018300005F02AFA601CC4B2242CF4DB0020E34932
:101840000880022202A901F07DFB42B010BD10B554
:10185000DF48007800EB8000DE4901EB402000F516
:1018600040722321032005F00FFAD948007800EBDD
:101870008000D84901EB402000F1800224210320A0
:1018800005F002FAD248007800EB8000D14901EB64
:1018900040222521032005F0F7F9CD48007800EB20
:1018A0008000CC4901EB402000F580722621032006
:1018B00005F0EAF9212405E0A1B20122032005F098
:1018C00068F9641C282CF7DB10BD10B5C0480078FF
:1018D00000EB8000BF4901EB40222A21032005F0E4
:1018E000D3F9BB48007800EB8000BA4901EB4020F7
:1018F00000F580722C21032005F0C6F9282405E0AC
:10190000A1B20122032005F044F9641C2D2CF7DB61
:1019100010BD10B51B2405E0A1B20022032005F084
:1019200061F9641C202CF7DB00220121032005F063
:1019300059F900220F21032005F054F90022162145
:10194000032005F04FF900221721032005F04AF982
:1019500000221921032005F045F910BD2DE9F04FB3
:10196000ADF2845DFFF7D5FF002545E200269A4AD7
:10197000D2E9001092680DF27C5305C3CDF87815BA
:1019800040210DF5A76007F095FA20210DF5A36021
:1019900007F090FA80210DF5936007F08BFA802113
:1019A0000DF5836007F086FA8021E6A807F082FA39
:1019B0009021C2A807F07EFAC5EB051101EBC51115
:1019C000803188B28F22C2A901F0ACFA2021BAA8D6
:1019D00007F070FA20220DF20A31BAA807F051FA86
:1019E0002021B2A807F066FADDF88F03B290BDF8A7
:1019F0009303ADF8CC029DF895038DF8CE020DF55A
:101A0000AF639DF88F139DF890039DF8912305AC6B
:101A10000BC404929DF893039DF894139DF89523AD
:101A2000AFF22443CDE90032CDE90210BAABAFF2F8
:101A30002842AFF224410DF5936007F0B5FE002077
:101A4000B1909DF84A03B190B1980002B1909DF811
:101A50004B13B1980844B1900020B090AF909DF81E
:101A60008903B090BDF8C0024FF6FF7101EA002073
:101A7000B090BDF8C0029DF88A13084480B2B090BF
:101A80000020AE90AD909DF88B03AE90BDF8B802EB
:101A90004FF6FF7101EA0020AE90BDF8B8029DF844
:101AA0008C13084480B2AE900020AC909DF88D035A
:101AB000AC900020AB909DF88E03AB90BDF8C002B7
:101AC000FEF723FDAF90BDF8B802FEF71EFDAD9006
:101AD000AD9807F004FB07468846AF9807F0FFFA79
:101AE00082468B460DF5AF629DF8AC02AFF2B4436F
:101AF0009DF8B012CDE90913CDE90B02AFF2C04059
:101B0000CDE906780890AFF2C040CDE902AB049071
:101B1000AFF2C8400090AFF2C042AFF2B8410DF54D
:101B20008360B19B07F040FE0DF5AF60AFF2A443B8
:101B3000AFF29C42AFF298410090E6A807F034FE65
:101B40004FF4F07133A807F0B5F920212BA807F066
:101B5000B1F978210DA807F0ADF9002014E041009B
:101B60004431C2AA515C2BAA11542BA9095C090269
:101B700011542BA90A5C41004531C2AB595C114498
:101B80002BAA1154411CC8B2B1998142E7DC4FF035
:101B9000000A2FE02BA911F80A0007F06EFA0DA930
:101BA00041F82A0051F82A000C4907F01FFA0DA944
:101BB00041F82A0051F82A0007F091FA07460DF57E
:101BC000AF60CDE90071029033A909E04C0000201C
:101BD000220000208B00002010A1000800007A44A1
:101BE00001EB0A100AF10102AFF2405107F0DCFDEF
:101BF0000AF1010AB1985045CCDC07F0EAF88146B9
:101C000006F01CFC8146B9F1140F12D0FE48007892
:101C100000EB8000FD4901EB402000F5A0622B2184
:101C2000032005F031F8FFF750FE0DF2845DBDE8AA
:101C3000F08FF548007800EB8000F44901EB40207C
:101C400000F560722B21032005F01EF8EE480078A5
:101C500000EB8000ED4901EB402000F580722C2163
:101C6000032005F011F801222821032004F091FF40
:101C700001222B21032004F08CFF01222C210320C0
:101C800004F087FFBAA8FFF763FAAFF2CC53BAAA01
:101C9000AFF2CC510DF5A76007F086FD00240DE0F2
:101CA0000DF5A760005DDA4901F81400002001215C
:101CB00001EB4401D64A5054601C84B20DF5A76074
:101CC000005D0028ECD1D24901F81400012101EB9C
:101CD0004401CF4A5054AFF2186000909DF8493348
:101CE0009DF84823AFF214610DF5A36007F05CFD89
:101CF000C7490DF5A36006F03EFE81460DF5A360D1
:101D000006F0A1FB8146B9F1140F01D1701CC6B2D7
:101D10000DF5936007F0D9F887B2002239460DF52A
:101D2000936006F09FFC4FF0FF3006F05DFC0DF570
:101D3000836007F0CAF887B2002239460DF5836048
:101D400006F090FC4FF0FF3006F04EFCE6A807F0DE
:101D5000BCF887B200223946E6A806F083FC4FF0B3
:101D6000FF3006F041FC002711E033A901EB07101A
:101D700007F0ABF81FFA80F833A901EB07104146D2
:101D800006F0AEFC4FF0FF3006F02EFC7F1CB19841
:101D9000B842EADC012006F015FC8146B9F1140FC7
:101DA00001D1701CC6B2022E01D16D1C0FE0964805
:101DB000007800EB8000954901EB402000F580623F
:101DC0002B21032004F060FFFFF77FFD2DE79148F2
:101DD000008885420FD18C48007800EB80008B4949
:101DE00001EB402000F590622B21032004F04CFF12
:101DF000FFF76BFD6D1C00BF8648008885427FF7AA
:101E0000B5AD00BF11E710B5A4B0044690216846F7
:101E100007F050F8C4EB041101EBC411803188B213
:101E20008F22694601F07EF840220DF102017A48C6
:101E300007F027F87948DDF887100160BDF88B10AE
:101E400081809DF88D10817124B010BD10B50024E3
:101E500007E0201D81B2AFF62002032004F014FF3A
:101E6000641C0A2CF5DB10BD7FB50025002400267C
:101E700007E006F11B0081B20122032004F0B2FE4C
:101E8000761C052EF5DB63480088052190FBF1F0F8
:101E90006349087001200023C8220E21009003200E
:101EA00004F01BFF5F48007800BB5A4800880521FA
:101EB00090FBF1F201FB120030B95648008890FB0C
:101EC000F1F05949087007E052480088052190FB5D
:101ED000F1F0401C544908700120002300904D4847
:101EE00002881321032004F0F8FE0AE028204E495E
:101EF000087001200023C82213210090032004F061
:101F0000ECFE4948007840B9012000230246112127
:101F10000090032004F0E1FE08E00120002300907F
:101F2000414802781121032004F0D7FE012000234C
:101F300000903E480278521C1021032004F0CDFE90
:101F40003A4800783649097888425BDC374800789F
:101F500033490978884201D1FFF778FF3348007888
:101F600000EB80002B490988081A451E41E0002D2E
:101F70003EDBE8B2FFF747FF284800782749497859
:101F8000264A9278254B1B79CDE90032CDE9021023
:101F900022484379827926A12E4807F005FC2D4A74
:101FA00004F10901032004F06FFE202200212A48D9
:101FB00006F079FF20221849274806F062FF264ADA
:101FC000211D032004F060FE234806F07EFF064634
:101FD0000C2E05DD3222211D032006F01FF804E03F
:101FE0000022211D032006F019F8601CC4B200BFB6
:101FF0006D1E0E480078401C00EB800005490988E2
:10200000081A2BE059E00000220000208B0000207D
:10201000BE5600204C000020DC550020230000208C
:10202000490000201B0000204A000020480000203A
:10203000253032642D253032642D25303264202045
:1020400025303264203A25303264203A253032641B
:10205000000000001C5600205C560020A84286DDCF
:102060005CB9002607E006F11B0081B200220320C4
:1020700004F0B8FD761C052EF5DB002C0FDD052CD9
:102080000DDA002607E0C6F11F0081B2002203200E
:1020900004F0A8FD761CC4F10500B042F3DC052C69
:1020A0000BD1002607E006F11B0081B201220320BC
:1020B00004F098FD761C052EF5DB7FBD10B50446B7
:1020C000F74800781F280FD104F0A2FB0023032259
:1020D0001946012004F046FB04F0BAFB00220A2155
:1020E000022004F0A8FD0EE004F092FB002303227E
:1020F0000121084604F036FB04F0AAFB01220A2164
:10210000022004F098FD10BD10B5E648007800EB01
:102110008000E54901EB402000F5B0626421012018
:1021200004F0B2FDDF48007800EB8000DE4901EBEF
:10213000402000F180026521012004F0A5FDD9486E
:10214000007800EB8000D84901EB40226621012095
:1021500004F09AFDD348007800EB8000D24901EBEF
:10216000402000F580726721012004F08DFD61247C
:1021700005E0A1B20122104604F00BFD641C682C9E
:10218000F7DB10BDF8B505460C461646012D7DD18E
:10219000532C32D1C548007820B101225921104674
:1021A00004F020FD0020C249C04A127821F8120034
:1021B000BE4800782C3081B2AFF26C12012004F0DE
:1021C00063FDBA480078002805DDB8480078401E55
:1021D000B649087002E00020B4490870B34800789E
:1021E000B3490880012000230090B04802785021B4
:1021F000012004F072FDFEF700FA592C04D1AD481D
:10220000007808B9FEF77EFA012C11D1012E0FD10A
:10221000A9480078012809D1A648007830B90022E1
:102220005B21012004F007FDFEF77AFDFEF709FDB2
:102230005B2C4DD1A1480068401CA04908600846AD
:10224000006801281FD19E480088C82805DBFFF7D9
:102250005BFF00209949086015E005F0AEFE994942
:10226000994801F094FA8F48007800EB80008E497D
:1022700001EB402000F500720521012004F004FD6F
:1022800000208C4908708D48006800E032E0022888
:102290001ED18448007800EB8000834901EB402088
:1022A00000F5C0720521012004F0EEFC00208349F6
:1022B000086000225321012004F094FC00225921DF
:1022C000012004F08FFC00225B21012004F08AFC35
:1022D0005D2C0FD178480078012809D17548007825
:1022E00030B900225B21012004F0A5FCFEF718FDA7
:1022F000FEF7A7FC022D0FD10A2C0DD168480078FB
:10230000C0436749087008460078FFF7D7FE0122EE
:1023100063491F2000F016FE032D6BD1162C17D138
:10232000012E15D169480078002811DD042706E048
:10233000B9B2AFF2E422032004F0A6FC7F1C0E2FFA
:10234000F6DB62480078401E60490870FFF78CFD9C
:10235000172C1AD1012E18D15D480078401E5B4918
:102360000978884211DD042706E0B9B2AFF22032C5
:10237000032004F089FC7F1C0E2FF6DB5348007805
:10238000401C52490870FFF76FFD0F2C01D1FFF779
:10239000E5FA192C01D1FFF75AFA212C01D1FFF7E8
:1023A00004FA222C01D1FFF7DCF9292C03D1FFF725
:1023B000BAF9FFF793F9A4F11B00052818D2DFE85A
:1023C00000F003070B0F130005204249087010E0CE
:1023D0000420404908700CE003203E49087008E0E2
:1023E00002203C49087004E001203A49087000E0EE
:1023F00000BF00BF042D11D1682C01D1FEF7B9FE3A
:10240000662C01D1FEF742FE5B2C07D132480078E2
:1024100008B9FEF7DDFD01202F490870052D21D1F7
:10242000032C0DD101201F49087001220221052033
:1024300004F0D8FB00220321052004F0D3FB0CE0BC
:1024400000201849087000220221052004F0CAFB70
:1024500001220321052004F0C5FB012211490820B7
:1024600000F070FD062D0BD10C2C09D100220221A9
:10247000062004F0E0FB00220921062004F0DBFB2B
:10248000072D0BD10C2C09D100220A21072004F0C2
:10249000D2FB00220B21072004F0CDFBF8BD000089
:1024A00033000020220000208B0000203600002096
:1024B0007C5600201E0000201A000020640000202E
:1024C0004C0000203500002034000020480000208F
:1024D0004A00002050000020200000202DE9F04399
:1024E000BBB005460020FE490870902117A806F0F1
:1024F000E1FC002016901590442104A806F0DAFCB7
:10250000691EC1EB011202EBC111803188B28F222A
:1025100017A900F007FD012000232A46532100904F
:10252000042004F0DAFB012000230090ED4802882B
:102530005421042004F0D1FB20220021EA4806F0B7
:10254000B2FC20220DF15E01E74806F09AFCE64A53
:102550004E21042004F098FBE34806F0B6FC064642
:10256000092E05DD32224E21042005F057FD04E03E
:1025700000224E21042005F051FD00201DE0410005
:10258000423117AA515C04AA22F8101004A931F8AC
:1025900010104FF6FF7202EA012104AA22F810106F
:1025A00004A931F810204100433117AB595C1144A4
:1025B00004AA22F81010411CC8B21F28DFDB01203A
:1025C0000090BDF8102000235021042004F085FB6A
:1025D000002411E0611C04AA32F81100FDF795FFF8
:1025E0008146012004F1300103234A460090042073
:1025F00004F0B9FB601CC4B2BDF81000A042E9DCD5
:102600009DF8DD00ADF84E00BDF84E004FF6FF71AD
:1026100001EA0020ADF84E00BDF84E009DF8DE1036
:10262000084480B2ADF84E00BDF84E00FDF76DFFD6
:102630000746012003233A4651210090042004F06C
:1026400092FB9DF8DF00ADF85000BDF850004FF64A
:10265000FF7101EA0020ADF85000BDF850009DF870
:10266000E010084480B2ADF85000BDF85000FDF70E
:102670004CFF804601200323424652210090042053
:1026800004F071FB9948DDF8E3100160BDF8E71034
:1026900081809DF8E9108171007894494978934AC6
:1026A0009278924B1B79CDE90032CDE902108F4828
:1026B00043798279AFF288618D4807F075F88C4ACA
:1026C0004F21042004F0E0FA9DF8E10016909DF8F7
:1026D000E2001590012000909DF858200023102161
:1026E000042004F0FAFA012000909DF85420002301
:1026F0001121042004F0F1FA3BB0BDE8F08310B5DD
:10270000AFF2B4626321042004F0BEFAAFF2C062FB
:102710006421042004F0B8FAAFF2CC6265210420F1
:1027200004F0B2FA612405E0A1B20022042004F012
:1027300030FA641C662CF7DB10BD10B5AFF2F06206
:102740005D21042004F0A0FAAFF2FC625E210420B7
:1027500004F09AFAAFF208725F21042004F094FAB0
:10276000AFF214726021042004F08EFA5A2405E0BE
:10277000A1B20022042004F00CFA641C612CF7DBE7
:1027800010BD10B5302406E0A1B2AFF23C720420B7
:1027900004F07AFA641C552CF6DB10BD10B5AFF2CC
:1027A00050726A21012004F06FFAAFF25C726B2163
:1027B000012004F069FAAFF268726C21012004F084
:1027C00063FA682405E0A1B20022012004F0E1F9D7
:1027D000641C6D2CF7DB10BD10B5AFF28C72642158
:1027E000012004F051FAAFF298726521012004F043
:1027F0004BFAAFF2A4726621012004F045FAAFF261
:10280000B0726721012004F03FFA612405E0A1B213
:102810000022012004F0BDF9641C682CF7DB10BD18
:1028200010B5AFF2D4726F21012004F02DFAAFF28F
:10283000E0727021012004F027FAAFF2EC727121EE
:10284000012004F021FA6D2405E0A1B2002201204C
:1028500004F09FF9641C722CF7DB10BD3EB50446F2
:10286000244804807CBB05F077FA23480078FFF702
:1028700025FC00200290012202A9072000F052FB53
:102880009DF808200421022004F0B3FA01200090F2
:102890009DF8082000230621022004F01EFA0020E3
:1028A0000190012201A90A2000F03CFB9DF80420C0
:1028B0000E21062004F09DFA9DF804200E21072029
:1028C00004F097FA00BF012C3CD1FFF7A9FFFFF7F6
:1028D00083FFFFF763FF0948007800EB80000FE0FB
:1028E000200000204C0000205C5600202300002027
:1028F0001C5600202E000020330000202200002063
:10290000F84901EB402000F5C0720521012004F0D8
:10291000BBF900225B21012004F064F900225B2155
:10292000012004F088F9FEF78CF9EF48007800EBFD
:102930008000EC4901EB402000F5E0625C210120C1
:1029400004F0A2F9032C09D1FEF7C8FEFEF7EBFE56
:10295000FEF707FFFFF788FAFFF713FF042C48D1B3
:10296000FFF7EBFEFFF7CBFEE048007806283AD2EF
:10297000DFE800F0392E23180D03DD48007800EB66
:102980008000DC490988081ADB4908802CE0D84817
:10299000007800EB8000D7490988081A401ED64904
:1029A000088021E0D248007800EB8000D1490988F6
:1029B000081A801ED049088016E0CD48007800EB48
:1029C0008000CC490988081AC01ECB4908800BE05A
:1029D000C748007800EB8000C6490988081A001F24
:1029E000C549088000E000BF00BFC3480088FFF76A
:1029F00075FD052C1AD1BC480078012809D10122A7
:102A00000221052004F0EEF800220321052004F045
:102A1000E9F8B548007848B900220221052004F001
:102A2000E1F801220321052004F0DCF8062C17D17F
:102A300000200290012202A90A2000F073FA00226D
:102A40000221062004F0F7F800220921062004F0F4
:102A5000F2F89DF808200E21062004F0CAF900BF04
:102A6000072C17D100200290012202A90A2000F0B1
:102A700059FA00220A21072004F0DDF800220B2178
:102A8000072004F0D8F89DF808200E21072004F054
:102A9000B0F900BF3EBD2DE9FC4F0BAC70CC06F089
:102AA0000F0B4FEA261E0EEB8E0E0BEB4E0B0BF0B0
:102AB000FF0700F00F0B4FEA201E0EEB8E0E0BEB04
:102AC0004E0B0BF0FF0C01F00F0B4FEA211E0EEB2B
:102AD0008E0E0BEB4E0B0BF0FF0802F00F0B4FEAC4
:102AE000221E0EEB8E0E0BEB4E0B0BF0FF0903F0CC
:102AF0000F0B4FEA231E0EEB8E0E0BEB4E0B0BF063
:102B0000FF0A04F00F0B4FEA241E0EEB8E0E0BEBA8
:102B10004E0B0BF0FF0BCDF804B005F00F0B4FEA96
:102B2000251E0EEB8E0E0BEB4E0B0BF0FF0BCDF8B4
:102B300000B0DFF8C8B18BF80070DFF8C0E1DDF855
:102B400000B08EF801B0DDF804B08EF802B0F346A4
:102B50008BF803908BF804A08BF805808BF806C0E7
:102B6000BDE8FC8F7047704770472DE9FF5F044652
:102B70000D466778A67894F807802079E17840EAD6
:102B80000129A079617940EA012B207A0106607A57
:102B900041EA0041A07A41EA0020E17A084303902B
:102BA000A5F10D0A0F2F3FD00CDC0B2F34D004DC25
:102BB000012F13D0032F74D111E00C2F24D00D2F2F
:102BC000F9D125E0552F6DD0B12F49D0C22F02D0B9
:102BD000F72FF0D12EE0444806709FE000BF484B2D
:102BE0005B79DFF81CC19CF804C043EA0C22444B1B
:102BF000DB78DFF80CC19CF802C043EA0C21404BA3
:102C00005878FFF7B1FF89E00120FFF7ACFF85E0BE
:102C10000020FFF7A8FF81E0A81F82B23849891C75
:102C20000120FFF79FFF79E0002211461046FFF7D1
:102C300099FF73E03248007A3149C979304A927974
:102C4000DFF8BCC0CDE9002102909CF805309CF86B
:102C500004209CF803109CF80200FFF71CFF5DE0C5
:102C6000012E03D14846FFF7F9FD52E0A8F110000C
:102C70000C284CD2DFE800F0060C171D234B4B4606
:102C80004B4B2930627A59464846FFF77BFA3FE0C2
:102C90000AF0FF0304F1080259464846FEF708F916
:102CA00036E03AE036E059464846039AFDF71AFF07
:102CB0002EE059464846039AFDF7BDFE28E05946E6
:102CC0004846039AFDF7B6FE22E0637A227A594617
:102CD0004846FDF7AEFE1BE0227A59464846FDF70E
:102CE000A7FE15E08B0000202200002050000020ED
:102CF000480000204C00002052000020230000204B
:102D00005C55002059464846FDF787FE00E000BFAD
:102D100000BF03E0FDF77AFE00E000BF00BFBDE8A2
:102D2000FF9F1CB5002001900090012201A90720FF
:102D300000F0F8F89DF80400372101EB4000C0F1E5
:102D4000FF0228A1684606F02FFD9DF8000003F061
:102D50008FFC00212448007804F091FD224800787F
:102D600048B901220221052003F065FF002203215A
:102D7000052003F060FF1C480078012809D10022DB
:102D80000221052003F057FF01220321052003F053
:102D900052FF1CBD10B515480078012804D1FFF77B
:102DA000C0FF00201149087000244021104802F0A3
:102DB000A5FE0446002C03DD21460D48FFF7D5FE95
:102DC0000C480078052801DBFDF7E6FD10BD014643
:102DD00000200A4603E00A2392FBF3F2401C002A7B
:102DE000F9D1704725630000220000201F00002059
:102DF0005C5500203100002010B500F0B5F810BD82
:102E000070B50446002600F0C6F8A02000F075F961
:102E100000F002F9201200F070F900F0FDF82546EC
:102E2000E11704EB11610912A4EB0121C8B200F013
:102E300064F900F0F1F800F0AEF8A12000F05DF9BF
:102E400000F0EAF8002000F08CF9064600F0C3F824
:102E5000304670BD70B504460E4600F09CF8A020C8
:102E600000F04BF900F0D8F8201200F046F900F01D
:102E7000D3F82546E11704EB11610912A4EB0121F7
:102E8000C8B200F03AF900F0C7F8304600F035F962
:102E900000F0C2F800F09FF8022000F0E0FC70BDE6
:102EA0002DE9F04105460E461746002409E0E200F0
:102EB00026FA02F2D1B22A1990B2FFF7CBFF601CBA
:102EC000C4B2BC42F3DBBDE8F0812DE9F041074616
:102ED0000C460026002509E036023919491B491E17
:102EE00088B2FFF78DFF0644681CC5B2A542F3DB2C
:102EF0003046BDE8F08110B5FF20FFF781FF0446A2
:102F0000552C01D1002010BD5521FF20FFF7A2FF55
:102F1000FF20FFF775FF0446552C01D10020F2E792
:102F20000120F0E770B506460C46154607E030462E
:102F3000721C96B2FFF764FF04F8010B6D1E002DA2
:102F4000F5D170BD70B505460C46164606E02178F1
:102F50002846FFF77FFF681C85B2641C301EA6F16F
:102F60000106F4D170BD000008B50121082001F070
:102F7000AFF9C020ADF8000010208DF80300032049
:102F80008DF802006946904800F0E6FEC0218E48A8
:102F900000F08FFF08BD10B58B48006820F070402E
:102FA000894908600846006840F0405008600120E8
:102FB000864908608649C1F89801042000F04FFC5A
:102FC000002082490860042000F049FC002080496C
:102FD000C1F8980110BD10B57B48006820F0704022
:102FE000794908600846006840F0405008600020B9
:102FF0007649091F08607649C1F89C01042000F059
:103000002EFC01207149091F08607149C1F89C011B
:10301000042000F024FC10BD10B500246A480068AC
:1030200020F07040684908600846006840F00040A1
:10303000086001206549086000F011FC0120644926
:10304000C1F8980100F00BFC07E0601CC4B2FA2C38
:1030500003DDFFF7C0FF012010BD5C488038006829
:103060000028F2D15949091F086000BFF4E710B5E4
:1030700000205649091F08605348006820F070403E
:10308000514908600846006840F040500860002040
:103090004F49C1F89C01022000F0E1FB01204B499F
:1030A000091F0860022000F0DAFB00204849C1F83F
:1030B000980110BD10B500204449091F086042481E
:1030C000006820F07040404908600846006840F001
:1030D0004050086001203E49C1F89C01022000F0E8
:1030E000BEFB01203949091F0860022000F0B7FB30
:1030F00000203749C1F8980110BD70B50446324828
:10310000006820F07040304908600846006840F0D0
:103110004050086000202D49091F086000251DE06F
:10312000E00918B101202949086002E00020274980
:1031300008606006040E022000F091FB0120234984
:10314000091F0860022000F08AFB00202049C1F816
:103150009801022000F083FB681CC5B2082DDFDB5C
:1031600070BD70B5054600241748006820F0704017
:10317000154908600846006840F0004008600026D5
:1031800017E000201149091F0860022000F067FBCA
:1031900001200F49C1F898016006040E0B488038E1
:1031A000006808B1601CC4B2012000F058FB701C1C
:1031B000C6B2082EE5DB15B9FFF77CFF01E0FFF78B
:1031C00056FF204670BD0000000C01409C8121424A
:1031D0000080214210B500240020CF4908609020D3
:1031E00000F0A4F9002000F0A1F9002000F09EF901
:1031F000002000F09BF9FF2000F098F944EA002439
:10320000FF2000F093F904430120C449C1F8B00144
:10321000204610BD08B50121082001F059F84FF4EF
:103220008050ADF8000010208DF8030003208DF8C9
:1032300002006946BA4800F08FFD4FF48051B8484B
:1032400000F037FE0120B449086000F096F9002034
:1032500000F0D9F9FFF7BEFFB249088008BD10B5EC
:1032600000240020AC490860052000F05FF9FF2031
:1032700000F05CF904460120A849C1F8B0012046DD
:1032800010BD10B504460020A3490860012000F0DD
:103290004DF9204600F04AF90120A049C1F8B001DB
:1032A00010BD10B500209C490860062000F03EF9D2
:1032B00001209A49C1F8B00110BD10B5002096490F
:1032C0000860042000F032F901209449C1F8B001EF
:1032D00010BD2DE9F04106460C46174600208E49E8
:1032E0000860032000F022F9C4F3074000F01EF943
:1032F000C4F3072000F01AF9E0B200F017F9002536
:1033000005E0FF2000F012F97055681C85B2BD423F
:10331000F7DB012080490860BDE8F08110B500BFEF
:10332000FFF79DFF00F001000028F9D110BD2DE945
:10333000F04106460C461746FFF7B3FF00207649DA
:103340000860022000F0F2F8C4F3074000F0EEF845
:10335000C4F3072000F0EAF8E0B200F0E7F8002537
:1033600004E0705D00F0E2F8681C85B2BD42F8DB55
:10337000012069490860FFF7D1FFBDE8F0812DE920
:10338000F04107460E461446F0B2C0F58075AC42D7
:1033900000DC254612E02A4631463846FFF7C7FFD3
:1033A000AC4200D10BE02F442E44601B84B2B4F534
:1033B000807F02DD4FF4807500E02546EBE700BF1B
:1033C000BDE8F08110B504462403FFF76AFFFFF75C
:1033D000A5FF002050490860202000F0A7F8C4F3A2
:1033E000074000F0A3F8C4F3072000F09FF8E0B214
:1033F00000F09CF801204949C1F8B001FFF78EFFA9
:1034000010BD2DE9F05F81460F461646DFF818B172
:103410004FEA1738C7F30B0ACAF58054A64200DCFE
:10342000344644E04FEA08314FF480525846FFF7E3
:1034300050FF002508E00AEB05001BF80000FF28FC
:1034400000D003E0681C85B2A542F4DB00BFA542B2
:1034500016DA4046FFF7B6FF002507E019F8050029
:1034600005EB0A010BF80100681C85B2A542F5DBEB
:103470004FEA08314FF480525846FFF780FF04E0CE
:10348000224639464846FFF77AFFA64200D10FE0B0
:1034900008F101084FF0000AA1442744301B86B20E
:1034A000B6F5805F02DD4FF4805400E03446B9E7A2
:1034B00000BFBDE8F09F10B5FFF7F3FEFFF72EFF4A
:1034C000002015490860C72000F030F8012013499A
:1034D000C1F8B001FFF722FF10BD10B500200E4962
:1034E0000860B92000F022F801200C49C1F8B001B1
:1034F000032000F0B4F910BD10B5002006490860A3
:10350000AB2000F013F801200449C1F8B0010320FA
:1035100000F0A5F910BD0000B081214200802142D9
:10352000000C014074000020C658002070B505460C
:10353000002405E0601CC4B2C82C01DD002070BD71
:1035400002213A4802F017FA0028F3D029463748FA
:1035500002F0BEF9002405E0601CC4B2C82C01DDF5
:103560000020ECE70121314802F005FA0028F3D0F1
:103570002E4802F0AFF9C0B2E1E700B587B00121F3
:10358000082000F0A5FE0121880300F0AEFE4FF4F4
:103590006040ADF8180018208DF81B0003208DF84E
:1035A0001A0006A9224800F0D7FB4FF460412048DA
:1035B00000F07FFC0020ADF804004FF48270ADF8FD
:1035C00006000020ADF808000220ADF80A00012036
:1035D000ADF80C004002ADF80E003820ADF8100038
:1035E0000020ADF812000720ADF8140001A90F4823
:1035F00002F098F801210D4802F039F9FF20FFF799
:1036000095FF07B000BD10B50446084800884FF686
:10361000C771084005490880084600882043088093
:103620000121024802F023F910BD000000380040DB
:10363000000C014008B50121102000F049FE4FF4B4
:103640000040ADF8000010208DF8030003208DF835
:1036500002006946044800F07FFB4FF480410248B5
:1036600000F027FC08BD00000010014008B5012152
:10367000402000F02DFE6020ADF8000028208DF8DD
:1036800003006946014800F067FB08BD00180140CF
:1036900010B56348406820F47040614948600846AE
:1036A000406840F44050486000205E4908601420A3
:1036B00000F0F9F801205C49C1F8AC011E2000F0CF
:1036C000CEF810BD10B500245548406820F4704075
:1036D000534948600846406840F40040486004E0B0
:1036E000601CC4B2012000F0BAF84E48803800686F
:1036F00008B1642CF4DB642C01DB012010BD002434
:1037000004E0601CC4B2012000F0A9F845488038EC
:10371000006808B9642CF4DB642C01DB0120EDE7C0
:103720000020EBE710B5002404E0601CC4B20120C7
:1037300000F095F83B488038006808B1642CF4DB51
:10374000002404E0601CC4B2012000F088F8354871
:103750008038006808B9642CF4DB282000F07FF87A
:1037600030488038006808B1012010BD0020FCE717
:1037700070B50024002506E06006040EFFF7D2FFB6
:103780000443681CC5B2082DF6DB204670BD7CB52D
:1037900005460E46FFF77CFFFFF794FFF8B90024BB
:1037A00005E0FFF7E5FF0DF80400601CC4B2052C2E
:1037B000F7DB9DF800009DF8011008449DF8021009
:1037C00008449DF8031008449DF80410884208D16D
:1037D0009DF8000030709DF80200287001E0012083
:1037E0007CBD0020FCE708B50121080200F070FD57
:1037F0004FF40060ADF8000010208DF803000320A6
:103800008DF802006946064800F0A6FA4FF4006100
:10381000034800F04EFBFFF73BFFFFF753FF08BDE7
:1038200000200140AC0124420000244210B56FF09A
:10383000040000F012FA2E4800682E49B0FBF1F0A7
:103840002D4908700846007800EB4001C1EBC0101C
:103850004FF6FF7101EAC0002849088010BD0146FB
:10386000254A12784A434FF0E0235A6100229A61B8
:103870001A46126942F001021A6100BF4FF0E022BD
:10388000106900F001021AB100F48032002AF5D06C
:103890004FF0E022126922F001024FF0E0231A619A
:1038A00000229A6170470146144A12884A434FF039
:1038B000E0235A6100229A611A46126942F001021D
:1038C0001A6100BF4FF0E022106900F001021AB146
:1038D00000F48032002AF5D04FF0E022126922F085
:1038E00001024FF0E0231A6100229A617047000044
:1038F0000000002000127A007600002078000020EE
:103900001FB50121022000F0F0FC6320ADF8080093
:1039100041F61F40ADF804000020ADF80A00ADF8F4
:10392000060001A90E4801F09DF8012211460C483D
:1039300001F00FFC01210A4801F0CAFE1D208DF89C
:10394000000001208DF801008DF802008DF80300C1
:10395000684600F038F90121014801F0DFFB1FBD86
:103960000004004010B586B004460121052000F097
:10397000AFFC0121480400F0B8FC0420ADF81400AD
:1039800003208DF8160018208DF8170005A96D4842
:1039900000F0E2F90820ADF8140004208DF81700BB
:1039A00005A9684800F0D8F901940020ADF8080096
:1039B000ADF80A00ADF80C00ADF810000C20ADF821
:1039C0000E0001A9604800F02AFD26208DF80000B5
:1039D00003208DF801008DF8020001208DF803000E
:1039E000684600F0F0F8012240F22551564800F0F8
:1039F000AEFD0121544800F09EFD4021524800F0E8
:103A000082FE06B010BD10B540F225514E4800F0C0
:103A100083FE00287ED04C4800F0FEFDC4B24B4827
:103A2000008800F4004000283DD14848008800F498
:103A30008040F8B10A2C0BD044480088C0F30D0038
:103A400043490C5441480088401C404908802AE002
:103A50003E48008840F400403C4908800846008801
:103A6000C0F30D003A490C5438480088401C3749CF
:103A7000088018E02D2C01D02B2C11D13348008860
:103A800040F480403149088008460088C0F30D00AA
:103A90002F490C542D480088401C2C49088002E016
:103AA00000202A49088029480078102802DD0020DB
:103AB000264908802548008800F4004050B30020C3
:103AC000224908802248C078202808D13020204987
:103AD000C87008460079202801D1302008710020E4
:103AE0001C4908601A48C07830381B4941431848BF
:103AF0000079303840F27122504301EB0011144834
:103B00004079303800EB4002C2EBC01001EBC0013D
:103B10000F4800E014E0C079303800EBC00202EB3F
:103B2000001001EB80010A48007A303800EB800079
:103B300001EB40010648407A3038084407490860E4
:103B400010BD00000008014000440040800000203B
:103B5000C668002060000020A08601007C000020D4
:103B600070B502460C46FF25FF2309E012F8010B51
:103B700080EA05010648405C80EA03050548435C8D
:103B8000201EA4F10106B4B2F0D145EA032070BDB5
:103B90001CA100081CA200080648804706480047F0
:103BA000FEE7FEE7FEE7FEE7FEE7FEE7FEE7FEE7ED
:103BB000FEE7FEE7E7030008310100083149014351
:103BC000314A1160704770B5002100230F22C4787C
:103BD00004B32D4C246804F4E064C4F5E064210AC5
:103BE000C1F10403CA40447804FA03F18478144014
:103BF00021430901254C0678A155047804F01F05DE
:103C00000124AC4005786D11AD0005F1E025C5F843
:103C1000004109E0047804F01F050124AC401C4D6C
:103C20000678761145F8264070BD1A4A0A400243CC
:103C3000154B1B1F1A60704739B1134A121D1268C9
:103C40000243114B1B1D1A6006E00F4A121D126839
:103C500082430D4B1B1D1A607047042808D14FF09A
:103C6000E021096941F004014FF0E022116107E011
:103C70004FF0E021096921F004014FF0E0221161C9
:103C8000704700000000FA050CED00E000E400E0E1
:103C900080E100E080FFFF1F10B50446CC4884425D
:103CA00008D10121042000F02DFB0021042000F0A8
:103CB00029FB46E0C748844208D10121082000F0D2
:103CC00021FB0021082000F01DFB3AE0C24884429D
:103CD00008D10121102000F015FB0021102000F078
:103CE00011FB2EE0BD48844208D10121202000F0C4
:103CF00009FB0021202000F005FB22E0B8488442A7
:103D000008D10121402000F0FDFA0021402000F000
:103D1000F9FA16E0B348844208D10121802000F06E
:103D2000F1FA0021802000F0EDFA0AE0AE4884426A
:103D300007D10121801500F0E5FA0021A01500F05F
:103D4000E1FA10BD10B50121084600F0DBFA0021B0
:103D5000012000F0D7FA10BD2DE9F0410246002500
:103D60000026002000230024002791F803C00CF057
:103D70000F0591F803C00CF0100CBCF1000F03D03C
:103D800091F802C04CEA050591F800C0BCF1000FA3
:103D900031D0146800202BE04FF0010C0CFA00F336
:103DA000B1F800C00CEA03069E4220D183004FF018
:103DB0000F0C0CFA03F7BC4305FA03FC4CEA0404AD
:103DC00091F803C0BCF1280F06D14FF0010C0CFA9A
:103DD00000FCC2F814C00AE091F803C0BCF1480F1F
:103DE00005D14FF0010C0CFA00FCC2F810C0401CC9
:103DF0000828D1D31460B1F800C0BCF1FF0F34DD46
:103E0000546800202EE000F1080C4FF0010808FA79
:103E10000CF3B1F800C00CEA03069E4221D18300E6
:103E20004FF00F0C0CFA03F7BC4305FA03FC4CEA05
:103E3000040491F803C0BCF1280F05D100F1080C6F
:103E400008FA0CF8C2F8148091F803C0BCF1480FCE
:103E500007D100F1080C4FF0010808FA0CF8C2F87D
:103E60001080401C0828CED35460BDE8F0814FF686
:103E7000FF710180022181700421C17070470246E8
:103E8000002093680B400BB1012000E00020704738
:103E90000146886880B2704702460020D3680B4014
:103EA0000BB1012000E0002070470146C86880B2D5
:103EB000704701617047416170470AB1016100E0DC
:103EC00041617047C16070474FF480320A4382619C
:103ED0008161826182698269704702460020434B9A
:103EE00018684FF68073184040EA021008433F4BB1
:103EF000186070473E49C8617047F0B50A46002314
:103F000000240021002500F00046B6F1004F02D148
:103F1000364EF16901E0354E7168C0F3034583B256
:103F200000F44016B6F5401F08D121F070612F4E05
:103F3000766826F070662D4F7E6012E000F48016E1
:103F4000B6F5801F06D1032606FA05F4A14341F019
:103F5000706106E0460D360103FA06F6B14341F002
:103F6000706122B1460D360103FA06F6314300F0C6
:103F70000046B6F1004F02D11C4EF16101E01B4E2C
:103F80007160F0BD30B500228B071C0F0F2303FAC0
:103F900004F2164B08338C1053F824309343134C1F
:103FA00008348D1044F8253023468C1053F8243003
:103FB0008C07240F00FA04F423430C4C08348D10B2
:103FC00044F8253030BD0A49DC31086070470000F4
:103FD00000080140000C01400010014000140140A5
:103FE00000180140001C0140002001400000014079
:103FF00000002042DF48006840F00100DD49086011
:1040000008464068DC490840DA49486008460068CC
:10401000DA490840D74908600846006820F4802043
:1040200008600846406820F4FE0048604FF41F0016
:1040300088607047CF49096821F48031CD4A11600A
:104040001146096821F480211160B0F5803F03D04A
:10405000B0F5802F0ED106E0C649096841F48031E1
:10406000C44A116007E0C349096841F4A021C14A6C
:10407000116000E000BF00BF704710B5014600228C
:10408000002300204A11012A02D1BA4C236806E01D
:10409000022A02D1B74C236A01E0B64C636A01F0F0
:1040A0001F02012494401C400CB1012000E00020BC
:1040B00010BD38B5002000900024002500BF31203D
:1040C000FFF7DBFF05460098401C00900098B0F514
:1040D000A06F01D0002DF2D03120FFF7CEFF08B144
:1040E000012400E00024204638BD01460020A14AFA
:1040F000106820F0F80040EAC10010607047A04945
:1041000008607047024600209A4B586820F47C10E3
:1041100042EA01031843974B586070479849086674
:10412000704701460020934A506820F0030008437E
:10413000506070478F48406800F00C00704701469F
:1041400000208C4A506820F0F0000843506070470F
:1041500001460020874A506820F4E0600843506020
:10416000704701460020834A506820F4605040EABE
:10417000C1005060704729B17E4A527A02437D4B9C
:104180005A7204E07B4A527A82437A4B5A727047E1
:104190007B49D8310860704701460020754A506855
:1041A00020F440400843506070470021714A20329B
:1041B0001170704A82F82010012802D004280AD118
:1041C00004E001216B4A2032117005E00521694AA3
:1041D0002032117000E000BF00BF704769490860DD
:1041E00070476449096A0143624A11627047654930
:1041F00044390860704730B50021002200240023B4
:104200005C4D6D6805F00C0121B1042905D0082929
:1042100023D105E05C4D056022E05B4D05601FE0A9
:10422000544D6D6805F47012524D6D6805F480347C
:10423000022505EB92421CB9544D554305600BE035
:104240004C4D6D6805F400351DB1504D554305606A
:1042500002E04D4D5543056002E04B4D056000BF47
:1042600000BF444D6D6805F0F0010909484D6B5CD5
:104270000568DD4045603F4D6D6805F4E061090A61
:10428000434D6B5C4568DD4085603A4D6D6805F4D3
:104290006051C90A3E4D6B5C4568DD40C560354DD7
:1042A0006D6805F44041890B3A4D6B5CC568B5FB00
:1042B000F3F5056130BD29B12E4A526902432D4BF9
:1042C0005A6104E02B4A526982432A4B5A61704773
:1042D00029B1284A92690243264B9A6104E0254A93
:1042E00092698243234B9A61704729B1214AD2696E
:1042F0000243204BDA6104E01E4AD26982431D4B1F
:10430000DA61704729B11B4AD2680243194BDA605F
:1043100004E0184AD2688243164BDA60704729B12C
:10432000144A12690243134B1A6104E0114A1269DC
:104330008243104B1A617047124940390860704738
:104340000F49C86470470B49C87170470948406AF3
:1043500040F0807007494862704701460020054AD6
:1043600092680A400AB1012000E00020704701492C
:1043700088727047001002400000FFF8FFFFF6FE51
:10438000000042428004424200127A0000093D00CF
:104390008B1400209B14002010B50446FB48844277
:1043A00009D101218803FFF7ADFF00214FF48040C0
:1043B000FFF7A8FF32E0F648844209D10121480402
:1043C000FFF7ADFF00214FF40030FFF7A8FF25E015
:1043D000F048844209D101218804FFF7A0FF0021A1
:1043E0004FF48020FFF79BFF18E0EB48844209D18F
:1043F0000121C804FFF793FF00214FF40020FFF7CD
:104400008EFF0BE0E548844208D101210805FFF743
:1044100086FF00214FF48010FFF781FF10BD2DE9CA
:10442000F04786B005460E460024A24600BFA146CE
:104430000027B08900B100BF2F462C8A4CF6FF70D0
:104440000440F08804432C82AC894EF6F3100440FB
:10445000B08831890843718908430443AC81AC8A30
:104460004FF6FF400440B0890443AC8201A8FFF737
:10447000C2FEC648874202D1DDF810A001E0DDF897
:104480000CA0A88900F4004040B10AEBCA0000EB80
:104490000A1031684900B0FBF1F807E00AEBCA00E6
:1044A00000EB0A1031688900B0FBF1F86420B8FB1A
:1044B000F0F004012009642101FB1089A88900F4AF
:1044C000004040B1322000EBC900B0FBF1F000F039
:1044D0000700044308E0322000EB09106421B0FB20
:1044E000F1F000F00F0004432C8106B0BDE8F08726
:1044F0004FF41651016000218180C18001810C219F
:10450000418100218181704710B502460020108A48
:104510004FF2FF0318400B884C8823438C882343B9
:10452000CC8823431843108210BD002101804180B4
:104530008180C180704721B1828942F4005282811A
:1045400004E082894DF6FF731A4082817047F0B50E
:104550000346002400260025002040F66A17B942D1
:1045600000D100BF1846C1F3421401F01F06012715
:1045700007FA06F5012C01D10C3004E0022C01D120
:10458000103000E014301AB107682F43076002E0D2
:104590000768AF430760F0BD1AB1838A0B4383827B
:1045A00002E0838A8B4383827047028A4FF6F0735E
:1045B0001A400282028A0A430282704782894FF2BD
:1045C000FF731A40828182890A438281704721B138
:1045D000828942F00202828104E082894FF6FD73F3
:1045E0001A4082817047028A4FF6DF731A400282B6
:1045F000028A0A430282704721B1028A42F4804251
:10460000028204E0028A4BF6FF731A40028270476E
:10461000C1F308028280704701468888C0F3080011
:104620007047818941F0010181817047028BD2B2CC
:104630000283028B42EA012202837047028B02F45A
:104640007F420283028B0A430283704721B1828A30
:1046500042F02002828204E0828A4FF6DF731A4021
:104660008282704721B1828A42F01002828204E085
:10467000828A4FF6EF731A408282704721B1828A94
:1046800042F00802828204E0828A4FF6F7731A40F1
:104690008282704721B1828942F40042828103E024
:1046A0008289C2F30E028281704721B1828A42F46C
:1046B0000062828204E0828A4FF2FF731A40828293
:1046C0007047828A4FF6FB731A408282828A0A43BD
:1046D0008282704721B1828A42F00202828204E023
:1046E000828A4FF6FD731A4082827047024600208C
:1046F000B1F5007F00D100BF13880B400BB1012042
:1047000000E00020704701F40072B2F5007F00D194
:1047100000BFCA430280704770B5024600240023E0
:104720000025002040F66A16B14200D100BFC1F357
:10473000421501F01F03012606FA03F3012D02D1F1
:104740009689334006E0022D02D1168A334001E0FB
:10475000968A33400C12012606FA04F41688344077
:1047600013B10CB1012000E0002070BD10B5002293
:10477000002340F66A14A14200D100BF0A120124AE
:104780009440A3B2DC43048010BD00000038014017
:104790000044004000480040004C004000500040F1
:1047A000002044490860091D0860091D0860091DB2
:1047B000086041483F4914310860704700213D4975
:1047C0008279002A3AD00A46126803689A430B4657
:1047D0001A600A1D126803689A430B1D1A60027959
:1047E00011440A6803681A430A60324A08321268A0
:1047F00003689A432F4B08331A601A1D1268036826
:104800009A432C4B0C331A604279102A0ED11A1F8E
:10481000126803681A43274B08331A601A1D12687E
:1048200003681A43234B0C331A600DE02149427987
:1048300011440A6803681A430A6005E002791144CA
:104840000A6803689A430A60704700210160017199
:104850000C2141710021817170471649103109689E
:104860000143144A10321160704701460020114A7A
:10487000143212680A400AB1012000E0002070479B
:104880000C49143108607047014600200022094B92
:104890001B6803EA0102074B14331B680B4013B17A
:1048A0000AB1012000E0002070470249143108607D
:1048B0007047000000040140FFFF0F0010B50446E0
:1048C000FE48844208D10121C014FFF71BFD0021DE
:1048D000E014FFF717FDC4E0B4F1804F08D10121C7
:1048E0000846FFF71CFD00210120FFF718FDB8E086
:1048F000F348844208D101210220FFF710FD002176
:104900000220FFF70CFDACE0EE48844208D1012103
:104910000420FFF704FD00210420FFF700FDA0E0C4
:10492000E948844208D101210820FFF7F8FC002162
:104930000820FFF7F4FC94E0E448844208D1012108
:104940001020FFF7ECFC00211020FFF7E8FC88E0C6
:10495000DF48844208D101212020FFF7E0FC00213C
:104960002020FFF7DCFC7CE0DA48844208D10121FA
:104970004014FFF7C7FC00216014FFF7C3FC70E090
:10498000D548844209D10121C804FFF7BBFC0021AE
:104990004FF40020FFF7B6FC63E0D048844209D111
:1049A00001210805FFF7AEFC00214FF48010FFF74E
:1049B000A9FC56E0CA48844209D101214805FFF705
:1049C000A1FC00214FF40010FFF79CFC49E0C54812
:1049D000844208D101214020FFF7A1FC00214020A2
:1049E000FFF79DFC3DE0C048844208D101218020B2
:1049F000FFF795FC00218020FFF791FC31E0BB48D8
:104A0000844208D101218015FFF789FC0021A015FF
:104A1000FFF785FC25E0B648844209D1012108044E
:104A2000FFF770FC00214FF48030FFF76BFC18E0BB
:104A3000B048844209D101214804FFF763FC0021FA
:104A40004FF40030FFF75EFC0BE0AB48844208D126
:104A500001218804FFF756FC00214FF48020FFF766
:104A600051FC10BD00220288944B98420ED0994B05
:104A700098420BD0B0F1804F08D0914B984205D0AE
:104A8000904B984202D0904B984204D14FF68F73CE
:104A90001A404B881A438D4B984207D08C4B984252
:104AA00004D04FF6FF431A40CB881A4302808B880C
:104AB00083850B880385814B98420BD0854B9842A8
:104AC00008D08B4B984205D08A4B984202D08A4B33
:104AD000984201D10B7A038601238382704770B517
:104AE000002400220023058C4FF6FE763540058415
:104AF000028C8388048B4FF68F752C40B51E2C409A
:104B00000D882C43751E2A400D892A434D882A435F
:104B10006A4DA8420BD06F4DA84208D0744DA842F0
:104B200005D0744DA84202D0734DA84213D14FF660
:104B3000F7752A404D892A434FF6FB752A408D8828
:104B40002A434FF6FF652B404FF6FF552B408D89CA
:104B50002B43CD892B4383800483CD8885860284B3
:104B600070BD70B5002400220023058C4FF6EF764F
:104B700035400584028C8388048B48F6FF752C40F1
:104B80004FF6FF452C400D884FF6FF7606EA0525C7
:104B90002C434FF6DF752A400D8906EA05152A4396
:104BA0004D8806EA05152A43444DA84202D0494DD6
:104BB000A8421DD14FF67F752A404D894FF6FF76EA
:104BC00006EA05152A434FF6BF752A408D8806EA86
:104BD00005152A434FF6FF352B404FF2FF752B404A
:104BE0008D8906EA85052B43CD8906EA85052B4389
:104BF00083800483CD880587028470BD70B500244E
:104C000000220023058C4FF6FF6635400584028C98
:104C10008388848B4FF68F752C404FF6FC752C40A3
:104C20000D882C434FF6FF552A400D894FF6FF762D
:104C300006EA05252A434D8806EA05252A431F4D25
:104C4000A84202D0234DA8421DD14FF2FF752A4041
:104C50004D894FF6FF7606EA05252A434FF6FF35C4
:104C60002A408D8806EA05252A434EF6FF752B401B
:104C70004DF6FF752B408D8906EA05152B43CD892E
:104C800006EA05152B4383808483CD8885870284BB
:104C900070BD70B5002200230024058C4EF6FF760F
:104CA00035400584038C8488828B48F6FF752A4042
:104CB0004FF6FF452A400D8820E00000002C0140FF
:104CC0000004004000080040000C004000100040BC
:104CD0000014004000340140004C014000500140ED
:104CE0000054014000180040001C0040002000401B
:104CF0000040014000440140004801404FF6FF766B
:104D000006EA05252A434DF6FF752B400D8906EA74
:104D100005352B434D8806EA05352B43FA4DA8424D
:104D200002D0FA4DA84208D14BF6FF752C408D8970
:104D30004FF6FF7606EA85152C4384808283CD8862
:104D4000A0F84050038470BD828B4FF2FF331A40AD
:104D50008283828B4FF6FF7303EA01231A43828317
:104D60007047F0B50C461546002200210026078C3E
:104D70004EF6FF7C07EA0C070784828B018C4FF606
:104D8000FF7707EA043640F6FF473A404FF6FF77D1
:104D900007EA05273A434FF6FF7707EA03373A4316
:104DA000D94FB8420ED0D94FB8420BD0B0F1804F96
:104DB00008D0D74FB84205D0D64FB84202D0D64F10
:104DC000B84206D14DF6FF77394046F48057394353
:104DD00005E047F6FF57394044F480573943828352
:104DE0000184F0BD828B4FF6F3731A408283828B6D
:104DF0000A4382837047F0B50C4615460022002115
:104E00000026078C4FF6FF6C07EA0C070784828B9D
:104E1000018C4FF6FF7707EA04264FF60C773A40ED
:104E20004FF6FF7707EA03172F433A43B64FB842CE
:104E30000ED0B64FB8420BD0B0F1804F08D0B44F6F
:104E4000B84205D0B34FB84202D0B34FB84206D1F2
:104E50004FF6FF57394046F48077394305E04FF26B
:104E6000FF57394044F48077394382830184F0BD91
:104E7000028B4FF2FF331A400283028B4FF6FF730F
:104E800003EA01231A4302837047F0B50C46154626
:104E9000002200210026078C4FF6EF7C07EA0C0762
:104EA0000784028B018C4FF6FF7707EA041640F661
:104EB000FF473A404FF6FF7707EA03373A434FF68A
:104EC000FF7707EA05273A438F4FB8420ED08F4F3E
:104ED000B8420BD0B0F1804F08D08D4FB84205D00A
:104EE0008C4FB84202D08C4FB84206D14FF6DF77D4
:104EF000394046F01007394305E04FF65F773940F7
:104F000044F01007394302830184F0BD028B4FF651
:104F1000F3731A400283028B0A4302837047F0B591
:104F20000C46154600220021068C4FF6FE773E40C7
:104F30000684028B018C4FF60C7632407E1C06EA0A
:104F400003162E433243704EB0420ED06F4EB04225
:104F50000BD0B0F1804F08D06D4EB04205D06D4EF1
:104F6000B04202D06C4EB04206D14FF6FD763140D1
:104F700044F00106314305E04FF6F576314044F048
:104F80000106314302830184F0BD70B505460C462D
:104F90005D4885420ED05D4885420BD0B5F1804F0B
:104FA00008D05B48854205D05A48854202D05A480D
:104FB000854200D100E000BF208850B92389A28833
:104FC00061882846FFF7ABFFE1882846FFF79EFF80
:104FD00025E0208804280AD12389A28861882846F0
:104FE000FFF753FFE1882846FFF742FF17E02088CC
:104FF00008280AD12389A28861882846FFF7FBFE8A
:10500000E1882846FFF7EEFE09E02389A28861883F
:105010002846FFF7A6FEE1882846FFF795FE70BDFB
:105020002DE9F04105460C4600260127608808B9A5
:10503000022600E00026A088012801D1022700E016
:1050400001272088A0B92389A28861882846FFF714
:1050500066FFE1882846FFF759FF23893A46314623
:105060002846FFF712FFE1882846FFF701FF13E00B
:105070002389A28861882846FFF707FFE188284630
:10508000FFF7F6FE23893A4631462846FFF747FFE9
:10509000E1882846FFF73AFFBDE8F0810A884B888F
:1050A0001A438B881A43CB881A430B891A434B89BE
:1050B0001A438B891A43A0F8442070474FF6FF71BA
:1050C000818000210180C1804180017270470021F0
:1050D000018041808180C180018141818181C181C4
:1050E0007047002101804180012181800021C18021
:1050F000018170470021018041808180C180018150
:105100004181818170470000002C01400034014042
:105110000004004000080040000C004021B102885B
:1051200042F00102028004E002884FF6FE731A404A
:105130000280704731B1B0F8442042F40042A0F838
:10514000442005E0B0F84420C2F30E02A0F8442049
:1051500070471AB183890B43838102E083898B43B3
:10516000838170478182704741EA0203A0F848308A
:1051700070471AB183890B43838102E083898B4393
:105180008381704701894FF6F872114001817047A1
:105190000A46002101894FF68F731940114301819E
:1051A000704730B504460D4629462046FFF7F0FF0C
:1051B000208940F00700208130BD2DE9F0410446F0
:1051C0000D4616461F46602D06D13B46012231464C
:1051D0002046FFF75AFE05E03B46012231462046B5
:1051E000FFF79DFE29462046FFF7D2FF208940F0B9
:1051F00007002081BDE8F08130B50C46002101890F
:10520000C9B24FF6FF7505EA032515432543294327
:10521000018130BD2DE9F04105460E4617469846FE
:10522000002443463A4631462846FFF7E5FF2C89DD
:105230004FF6F870044044F007044FF68F700440B6
:1052400044F070042C81BDE8F081F0B504460D46B1
:1052500016461F463B46324629462046FFF7CCFFFE
:10526000208940F480402081F0BD01858282704712
:105270000A46002101884FF68F73194011430180BF
:105280007047F0B50C4615461E460021002200234B
:105290000189028B038C4FF6F877394021434FF692
:1052A000FC473A4040F201173A434FF6DD773B4066
:1052B0004FF6FF7707EA06172F433B43018102832E
:1052C0000384F0BD0A460021018B4FF68F7319400D
:1052D0001143018370470A460021018B48F6FF7392
:1052E00019404FF6FF7303EA022319430183704705
:1052F0000A460021818B4FF68F7319401143818339
:1053000070470A460021818B48F6FF7319404FF61B
:10531000FF7303EA022319438183704721B1028896
:1053200042F08002028004E002884FF67F731A4048
:105330000280704721B1828842F00402828004E03A
:1053400082884FF6FB731A408280704721B18288B1
:1053500042F00802828004E082884FF6F7731A4018
:105360008280704721B1828842F00102828004E08D
:1053700082884FF6FE731A40828070470A460021E9
:10538000018B4FF6F77319401143018370470A46AA
:105390000021018B4FF2FF7319404FF6FF7303EAB0
:1053A00002231943018370470A460021818B4FF67F
:1053B000F77319401143818370470A460021818B9E
:1053C0004FF2FF7319404FF6FF7303EA02231943AC
:1053D000818370470A460021018B4FF6FB73194009
:1053E0001143018370470A460021018B4FF6FF33BA
:1053F00019404FF6FF7303EA0223194301837047F4
:105400000A460021818B4FF6FB73194011438183BB
:1054100070470A460021818B4FF6FF3319404FF643
:10542000FF7303EA02231943818370470A46002170
:10543000018B4FF67F7319401143018370470A4671
:105440000021018BC1F30E014FF6FF7303EA022323
:105450001943018370470A460021818B4FF67F7301
:1054600019401143818370470A460021818BC1F3A3
:105470000E014FF6FF7303EA02231943818370473D
:105480000A460021018C4FF6FD7319401143018437
:1054900070470A460021018C4FF6F77319401143FB
:1054A000018470470A460021018C4FF6DF731940D2
:1054B0004FF6FF7303EA02131943018470470A464B
:1054C0000021018C4FF67F7319404FF6FF7303EAFA
:1054D00002131943018470470A460021018C4FF6DC
:1054E000FF5319404FF6FF7303EA02231943018467
:1054F00070470A460021018C4FF2FF7319404FF6A6
:10550000FF7303EA02231943018470470A4600210E
:10551000018C4DF6FF7319404FF6FF7303EA023317
:1055200019430184704730B5002301248C40A3B295
:10553000048C9C430484048C02FA01F5ADB22C4324
:10554000048430BD30B5002304248C40A3B2048C05
:105550009C430484048C02FA01F5ADB22C4304840C
:1055600030BD70B5034600200024184618300125D0
:105570008D40ACB21D8CA5431D8409B1082909D109
:1055800000EB6100056825F07005056005681543AE
:1055900005600EE00D1FC5F34E052844056825F48F
:1055A000E045056005684FF6FF7606EA02263543BA
:1055B000056070BD21B1028842F00202028004E061
:1055C00002884FF6FD731A400280704721B10288AD
:1055D00042F00402028004E002884FF6FB731A4096
:1055E0000280704721B1828842F08002828004E00C
:1055F00082884FF67F731A408280704702884FF688
:10560000F7731A40028002880A430280704782883A
:105610004FF68F731A40828082880A4382807047D7
:1056200002894FF6F8731A40028102890A43028107
:10563000704702894FF67F731A40028102890A433C
:1056400002817047818470478185704781867047E9
:105650000187704781877047A0F840107047028823
:105660004FF6FF431A40028002880A4302807047C7
:105670000146888E70470146088F70470146888F23
:1056800070470146B1F8400070470146888C70476A
:105690000146088D704702460020138A0B400BB16B
:1056A000012000E000207047CA430282704730B5F5
:1056B0000246002000230024158A05EA010395898B
:1056C00005EA010413B10CB1012000E0002030BD57
:1056D000CA4302827047000010B50446BE488442A7
:1056E00008D101218014FEF70DFE0021A014FEF761
:1056F00009FE16E0B948844208D101210014FEF7E2
:105700000EFE00212014FEF70AFE0AE0B44884428F
:1057100007D10121C013FEF702FE0021E013FEF7BE
:10572000FEFD10BD10B50022028802F441520B8824
:105730004C8823438C882343CC8823430C89234300
:105740004C8923438C892343CC8923431A43028009
:10575000838B4FF2FF74234083830B8A038210BD37
:105760002DE9F04F85B005460C464FF000090227A1
:105770004FF000084FF0010B0026B246A88B4FF205
:1057800040010840A88302202884B5F81C90A06836
:10579000022801D100BF38E0A08810B94FF0010BFA
:1057A00001E04FF0020B8D48854200D100E000BFC0
:1057B0006846FEF720FDDDF800A0E088B0F5007F28
:1057C0000AD14FEA1A2000EB80004000A168B0FB2C
:1057D000F1F0401D86B20BE04FEA4B10BAFBF0F03F
:1057E00000EB80004000A168B0FBF1F0401D86B2E4
:1057F0000A20B6FBF0F606F00108A6EB0800C0F39D
:105800004F074FF6FF7000EA0828022F01DBFF2F39
:1058100002DD02274FF00008E08840EA0800384324
:105820002884A088A1890843618808432188084307
:1058300040F4006040EA0909A5F81C9005B0BDE8F5
:10584000F08F0021018041808180C18001814181F0
:105850008181C1810721018270470021018041803F
:105860008180C1800221816000218181704721B146
:10587000028842F04002028004E002884FF6BF73C3
:105880001A400280704721B1828B42F48062828389
:1058900004E0828B4FF6FF331A408283704730B5A5
:1058A000002400230C110125A540ABB21AB1858854
:1058B0001D43858002E085889D43858030BD1AB1F7
:1058C00083880B43838002E083888B438380704707
:1058D000818170470146888970474FF6FF62914287
:1058E00004D0028842F48072028004E002884FF6FD
:1058F000FF631A400280704721B1828842F004029F
:10590000828004E082884FF6FB731A4082807047E1
:1059100002884FF2FF731A40028002880A43028015
:105920007047018841F480510180704721B102889D
:1059300042F40052028004E002884DF6FF731A40E0
:105940000280704702460020012901D0108B00E040
:10595000908A70470146088A7047B1F5804F04D19C
:10596000028842F48042028004E002884BF6FF7312
:105970001A40028070470246002013890B400BB189
:10598000012000E000207047CA4302817047F0B553
:105990000246002000240023002501F00F07012605
:1059A000BE40B4B20B1101269E40B3B2968806EAFF
:1059B00003051689264016B10DB1012000E0002034
:1059C000F0BD10B5002201F00F040123A3409AB2EC
:1059D000D343038110BD0000003001400038004077
:1059E000003C004000208B49488008808A490860BC
:1059F0008A49088070470020894948800880894981
:105A000008808949088070470146824B1B88581CD2
:105A1000C31700EBD3535B12A0EB43239AB27D482C
:105A20004088904205D07B480388001DC154001F68
:105A30000280704701467A4B1B88581CC31700EB45
:105A4000D3535B12A0EB43239AB27548408890422F
:105A500005D073480388001DC154001F02807047A1
:105A600001466C4840886B4A128890420FD06948C2
:105A70004288001D805C0870664A5288501CC2171C
:105A800000EBD2525212A0EB4222624B5A80704776
:105A9000014663484088624A128890420FD06048AD
:105AA0004288001D805C08705D4A5288501CC217F5
:105AB00000EBD2525212A0EB4222594B5A8070474F
:105AC0005448008800F50070524A5288811AC8175D
:105AD00001EBD0504012A1EB402080B270475048FB
