:020000040800F2
:1000000078DE00200D3D0008870400088904000800
:100010008D04000891040008950400080000000009
:10002000000000000000000000000000990400082B
:100030009B040008000000009D0400089F040008C5
:10004000273D0008273D0008273D0008273D000800
:10005000273D0008273D0008270400083704000852
:10006000273D0008273D0008273D0008273D0008E0
:10007000273D0008273D0008273D0008273D0008D0
:10008000273D0008273D0008273D0008273D0008C0
:10009000273D0008273D0008273D0008273D0008B0
:1000A000273D000811040008273D0008273D0008EF
:1000B000790300088F030008273D0008273D00084A
:1000C000273D0008273D0008273D0008273D000880
:1000D000273D000847040008213A0008670400088B
:1000E000273D0008273D0008273D0008273D000860
:1000F000273D0008273D0008273D0008273D000850
:10010000273D0008273D0008273D0008273D00083F
:10011000273D0008273D0008273D0008273D00082F
:10012000273D0008273D0008273D0008273D00081F
:10013000DFF80CD008F018FF00480047ED02000877
:1001400078DE002010B5002478480068C4B27848F2
:100150000078A04215D000F0C3FC764908807448AE
:1001600004700120744908705CB974480078012853
:1001700007D100207149087006F076FF0020704911
:1001800008807048007801280BD100F0A9FC69496B
:10019000088000206B4908706B490880012066497F
:1001A000087010BD10B500F028FB68490968401AB6
:1001B00067490968401A6749086000F01EFB6649F4
:1001C000086064480068642807DC6248006810F131
:1001D000640F02DB00205F49086010BD00B589B0E4
:1001E000202101A808F099FA00200090202201A9FE
:1001F00002F0F0FE9DF804005849087008460078A7
:10020000772801DB002008709DF80500544908702C
:100210009DF80600534908709DF8070000069DF8F8
:10022000081040EA01409DF8091040EA01209DF8BD
:100230000A100843454908609DF80B00372101EB7F
:100240004000C0F1FF0248A1684609F07FF89DF820
:10025000000006F0EFFC01204449087000214348EB
:10026000007807F0D6FD9DF80D0000069DF80E10F1
:1002700040EA01409DF80F1040EA01209DF810105F
:1002800008433B4908609DF811003A4908709DF801
:10029000120048709DF8130088709DF81400C87013
:1002A00009B000BD10B503F031FB10BD10B54FF41F
:1002B000E13003F04DFC08F006FA4FF4E13008F0AD
:1002C00077F905F071FE05F078FE4FF4967003F0B3
:1002D000F0FA00F0EDF900F02FFB03F01CFA03F048
:1002E00001FA02F0E1FD02F0EDFF10BD03F0A4FA07
:1002F000FFF7DCFFFFF7D6FFFFF770FF00F0F0FB22
:100300000C4908804FF4967003F0D3FA00F0E8FB34
:100310000849088009E0FFF745FF02F00BFD00F0F7
:100320006DFEFFF70FFF03F034FAF4E70C012142F2
:100330000C0000205A000020640000209D000020D6
:1003400082000020550000205800002004000020FA
:10035000080000200000002014000020730000208E
:100360007B0000209C000020256300006600002028
:10037000AC000020B800002010B50121880705F06E
:1003800050FA18B10121880705F05CFA10BD10B5CC
:100390000121434805F045FA002838D0414800784B
:1003A00020B941480078401C3F4908703F48007818
:1003B00020B93F480088401C3D4908803C480088DF
:1003C000B0F57A7F02DB012038490870394800789F
:1003D000012804D138480078401C37490870374854
:1003E0000088401C354908800846008864280ADBDC
:1003F0003348006808B9012000E000203049086057
:1004000000202E4908800121254805F01BFA10BD67
:1004100010B501212B4805F004FA18B10121294833
:1004200005F010FA10BD10B5012004F0E7FA012024
:1004300004F0F5FA10BD10B5022004F0DFFA022036
:1004400004F0EDFA10BD10B540F225511E4804F03D
:100450001DFA38B11C4804F099F9C4B2204605F0E1
:10046000B5FD00BF10BD10B540F22551174804F08E
:100470000DFA38B1154804F089F9C4B2204605F0E8
:10048000BBFD00BF10BD704700BFFEE700BFFEE729
:1004900000BFFEE700BFFEE7704770477047704738
:1004A00000040040800000207F0000205500002054
:1004B00058000020BE000020BF00002018000020CF
:1004C000BC012242002C014000380140004800409D
:1004D0000CB50020019000906C48006840F480301A
:1004E0006A49086000BF6948006800F40030009065
:1004F0000198401C0190009818B90198B0F5A06FC0
:10050000F1D16248006800F4003010B10120009081
:1005100001E0002000900098012843D15C48006869
:1005200040F010005A4908600846006820F00300B7
:1005300008600846006840F00200086053484068C0
:10054000524948600846406848600846406840F4A0
:10055000806048600846406820F47C104860084687
:10056000406840F4E81048600846006840F0807039
:10057000086000BF4548006800F000700028F9D00E
:100580004248406820F003004049486008464068FF
:1005900040F00200486000BF3C48406800F00C009A
:1005A0000828F9D10CBD10B5FFF792FF10BD10B5AA
:1005B0003648006840F00100344908600846406849
:1005C00034490840314948600846006832490840CB
:1005D0002E4908600846006820F48020086008461C
:1005E000406820F4FE0048604FF41F008860FFF769
:1005F000DAFF4FF000602949086010BD10B50021F6
:1006000000200022214B5B6803F00C0121B104297A
:1006100006D0082928D107E0214B224C236027E08F
:100620001F4B204C236023E0184B5B6803F47010D1
:10063000164B5B6803F48032022303EB904022B92F
:10064000194B4343174C23600DE0104B5B6803F4D8
:10065000003323B1144B4343124C236003E0104B8F
:100660004343104C236003E00D4B0E4C236000BF4E
:1006700000BF064B5B68C3F303130C4CE15C094BF2
:100680001B68CB40074C236010BD000000100240E7
:10069000002002400000FFF8FFFFF6FE08ED00E03A
:1006A00000127A001C00002000093D0020000020FC
:1006B00038B500240121042003F0C4FE3020ADF839
:1006C000000010208DF8030003208DF80200694619
:1006D0008A4803F0FBFB4020ADF8000004208DF8B1
:1006E000030003208DF802006946844803F0EEFB06
:1006F0001021824803F099FC2021804803F095FCEA
:10070000642003F0D6F810217C4803F08CFC00BF75
:1007100040217A4803F06DFC0028F9D100240FE055
:100720002021764803F07FFC022003F09EF8202170
:10073000724803F07AFC022003F097F8601CC4B200
:100740001A2CEDDB6E486F4908604042486038BDA6
:1007500070B5054600BF00206B49086000BF40210E
:10076000664803F046FC0028F9D1002419E0202156
:10077000624803F058FC022003F077F840215F48FC
:1007800003F037FC6049096840EA41005E490860AF
:1007900020215A4803F049FC022003F066F8601C4F
:1007A000C4B2182CE3DB2021544803F03CFC0220A7
:1007B00003F05BF82021514803F037FC022003F0DE
:1007C00054F85148006820F07F404F4908600846BF
:1007D0000068401C00B9BEE74B48006800F4000008
:1007E00040B14948006840F07F40474908600846EA
:1007F000006870BD44480068FBE72DE9FF474FF0F3
:1008000000090020FFF7A4FF044640480460404868
:10081000406F40490968081A3E4908603E48046034
:100820003E4804604FF01D0923E0A9F1010038495A
:1008300051F820003A4908600846006837490968BD
:10084000884203DD3648006834490860344800684F
:1008500031490968884203DA314800682E49086046
:100860002F4800682A4941F82900A9F1010000F049
:10087000FF09B9F1000FD8DC25480460254800685D
:100880002044244908600846006824490968401A41
:1008900021490968401A1C2190FBF1F021490860A8
:1008A00021480078012804D10846006804B0BDE85A
:1008B000F0871E48006808F01DF905460E461949E4
:1008C00009681B4A1268881A08F0DDF80022194BE3
:1008D000CDE9000107F0F6FF07462A46334608F047
:1008E00063F8CDE9020108F018F98246504608F095
:1008F000E8F80C49086008460068D7E7000801409E
:1009000000EE85FF480000203C0000205000002041
:10091000604100203800002034000020300000201A
:1009200044000020400000206B000020B8000020A0
:10093000AC0000200000F03F00B587B001214FF46B
:10094000047003F07FFD4FF4004003F0DFFC012052
:10095000ADF8040000208DF8070001A9744803F0E9
:10096000B5FA744804F072FF002002908DF80C0074
:100970008DF80D004FF460200490002005900120B8
:100980008DF8180002A96B4804F087FF012169481F
:1009900004F0AFFF674804F0CEFF00BF654804F0E5
:1009A000CFFF0028FAD1634804F0D4FF00BF6148AC
:1009B00004F0D5FF0028FAD101215E4804F0D9FFE8
:1009C00007B000BD10B5044607230122214659484F
:1009D00004F0FBFF0121574804F0CBFF00BF0221C8
:1009E000544805F037F90028F9D0524805F054F87A
:1009F00010BD2DE9F04106460C460027B8460AE036
:100A00003046FFF7DFFF0744012002F052FF08F1F4
:100A1000010000F0FF08A045F2DB0A2E04D1B7FB6D
:100A2000F4F5A8B2BDE8F081092E03D1B7FBF4F5C7
:100A3000A8B2F7E70020F5E72DE9F04F87B082462E
:100A40000C460025A9460AE05046FFF7BBFF0544C7
:100A5000052002F02EFF09F1010000F0FF09A14579
:100A6000F2DBB5FBF4FB584608F01EF8324A334B74
:100A7000CDE9000107F026FF00224FF08043CDE9C9
:100A8000020107F01FFF074600222D4B07F08CFFE5
:100A9000CDE9040108F041F80646304607B0BDE84C
:100AA000F08F10B514210A20FFF7A3FFA0F6020073
:100AB00064214843890090FBF1F084B2782C00DD7A
:100AC00078242048006810B11F490C7005E01E48CA
:100AD0000078844201DA1C490C701B48007810BD74
:100AE00010B5FFF7DEFF04B218490C801548006806
:100AF00040B1A4F1320004B208460088782801D140
:100B0000062010BD002C00DC0024322C01DB052067
:100B1000F7E7192C01DB0420F3E70A2C01DB0320A3
:100B2000EFE7002C01DD0220EBE70120E9E7000000
:100B300000100140002401409A9999999999E93F40
:100B400000408F400C012142540000205C00002036
:100B500038B50446FE480068012807D1FD480078F2
:100B6000001DC2B20C21204606F092FDF848006834
:100B700038B9F8480078401EC2B20C21204606F071
:100B800087FD012003460090F34802880D2120468E
:100B900006F06DFB38BD00B5A1B0802101A807F0BB
:100BA000BCFDEE4800788DF804004022EC490DF1C0
:100BB000050007F099FDEB480068000E8DF8450030
:100BC000E8480068000C8DF84600E6480088000AF6
:100BD0008DF84700E34800788DF84800E248006847
:100BE000000E8DF84900E0480068000C8DF84A00BE
:100BF000DD480088000A8DF84B00DB4800788DF84E
:100C00004C00DA48008800128DF84D00D748007873
:100C10008DF84E00D6480168CDF84F108188ADF8A8
:100C2000531080798DF85500CC49097801EBC10249
:100C300002EB4111802202EB4100522201A902F095
:100C4000D9F9C6480078401CC0B28DF804000122D2
:100C500001A9002002F0CEF9C0480078C103C348C2
:100C60000288C44802F025FC21B000BD2DE9F04106
:100C7000A0B004468021684607F04FFD04EBC40194
:100C800001EB4411802202EB41005222694602F03E
:100C9000A1F940220DF10101B14807F025FD9DF8B1
:100CA000411009069DF8422041EA02419DF8432087
:100CB00041EA02219DF8442041EA020007F0E3FEE8
:100CC00007460022AC4B07F06FFE054607F025FFF4
:100CD000AA4908609DF8451009069DF8462041EA9A
:100CE00002419DF8472041EA02219DF8482041EA4F
:100CF000020007F0C8FE074600229F4B07F054FE93
:100D0000054607F00AFF9D4948609DF84A009DF896
:100D1000491040EA0120994908819548DDF84B10B7
:100D20000160BDF84F1081809DF85110817193488A
:100D30000289E1038F4802F024FB90490889C1171A
:100D400000EBD15149128E4A1170104600780028EC
:100D50001EDD8A490989A1F50070C11700EB916178
:100D60008911A0EB8111874A117084490989A1F585
:100D70000070C11700EB9161C1F38F11824A11809D
:100D80008048007820B110460088401C1146088039
:100D900020B0BDE8F08110B5A0B0044680216846BF
:100DA00007F0BBFC04EBC40101EB4411802202EB11
:100DB00041005222694602F00DF940220DF1010175
:100DC000674807F091FC6A48DDF84B100160BDF8F8
:100DD0004F1081809DF85110817120B010BDF8B581
:100DE00004460D4600200090600400F580100422A7
:100DF00002FB0501684602F0C4FA9DF800000006F7
:100E00009DF8011040EA01409DF8021040EA0120DF
:100E10009DF8031040EA01063046F8BD1CB50020DD
:100E200001904E480078642805DB00204B4908708B
:100E3000012056490870FFF7AEFE4849097801EBDA
:100E4000C10202EB4111802202EB4100012201A903
:100E500002F0C0F89DF8040040490978884253D157
:100E60000020424908804FF400420021414807F029
:100E70004DFC402200213A4807F048FC37480078F2
:100E8000401C364908700846007864280DDB40A0F5
:100E9000006800900020087001203C490870012281
:100EA0006946104602F0A6F800BF3AA21B210220B4
:100EB00006F0B4F900203A4908703A480078401C1E
:100EC0003849087008460078FF2801DB00200870C8
:100ED0003448027834A1364808F038FA35483649A3
:100EE0000978084432490A6802608988818032485A
:100EF0000278921D2F491A4807F0F6FB184A19216B
:100F0000022006F08BF904E02CA21B21022006F03F
:100F100085F91CBD08B500202C4908602C490860E3
:100F20001049086010490860202001230022052193
:100F30000090022006F09BF92020012300220621C8
:100F40000090022006F093F920200123002241E0C6
:100F50000C0121425A0000205C0000207300002098
:100F6000184200208C000020900000207C0000200F
:100F70006C0000209843002000408F4060C4002097
:100F80009E000020A2000020A00000207B00002086
:100F9000010000002053617665206F6B2120000066
:100FA0007E00002074000020202825642900000015
:100FB00075000020D8420020810000202053617677
:100FC00065206572726F722120000000940000207D
:100FD0009800002014210090022006F048F9002219
:100FE0000121022006F059FC0020FE4908804FF440
:100FF00000420021FC4807F089FB08BD1CB5FB48F6
:101000000078002876D1FA48006828B9F9480078B5
:1010100010B90120F7490870F5480068012811D17E
:10102000F448007801280DD10020F2490870F248F8
:101030000078401CF049087008460078022801DD5D
:1010400001200870EC48007801283DD1EB48007879
:10105000002839D1EA480078012803D0E94800780F
:10106000012831D1E6480078012817D1E5480078F9
:10107000A0B9E5480078012803D1FFF7CFFEFFF7BC
:1010800049FF0020E04908700120DC490870012276
:101090000E21022006F099F807F059FAD948007895
:1010A000012811D1D948007801280DD10020D64956
:1010B00008700120D14908708DF80400022201A9AE
:1010C000EA2002F0B8FD00BFCB480078022837D1F3
:1010D000CA480078012833D1CA48007858B901209D
:1010E000C94908700020C549087000220E2102205D
:1010F00006F06BF824E0C3480078012820D1C348EB
:10110000007801281CD1C04908700020BB49087034
:101110008DF80400022201A9EA2002F08CFD2020B3
:1011200002230022062100900D2006F0E6F8202080
:1011300002230022142100900D2006F0DEF800BFEB
:10114000AA48007801285AD1B148006841F2883194
:1011500088423CDBA7480078C8BBA9480078012832
:1011600003D0A8480078012831D1A6480078B0B94A
:10117000A5480078012803D1FFF750FEFFF7CAFE0B
:101180000020A149087001209A4908709B49087005
:1011900001220E21022006F018F807F0D8F999482C
:1011A0000078012813D19948007801280FD1002038
:1011B0009549087001208F490870904908708DF892
:1011C0000400022201A9EA2002F035FD00BF904888
:1011D000006841F28831884239DC8648007801286D
:1011E00035D18848007858B9012087490870002017
:1011F0008049087000220E21022005F0E6FF26E05B
:1012000080480078012822D18048007801281ED12A
:101210007D490870002077490870784908708DF87A
:101220000400022201A9EA2002F005FD2020022389
:101230000022062100900D2006F05FF820200223F6
:101240000022142100900D2006F057F800BF1CBDAD
:101250002DE9FE430020029001906D48006807F0E0
:1012600012FC054600226B4B07F09EFB074607F079
:1012700054FC044663480078012873D1664800781E
:1012800088B95A48007820B964A21D210D2005F0C4
:10129000C5FF56480078012816D163A21D210D20F4
:1012A00005F0BCFF10E05148007820B961A21D2173
:1012B0000D2005F0B3FF4D480078012804D160A24D
:1012C0001D210D2005F0AAFF04200223224605213E
:1012D00000900D2006F011F84C480078012841D10B
:1012E00045480078012803D042480078012839D1C8
:1012F00047480068000E8DF8080045480068000C5B
:101300008DF8090042480088000A8DF80A0040481C
:1013100000788DF80B00042202A9EE2002F08BFC6D
:1013200021464A48006807F015FC01D2474804608E
:1013300021464748006807F017FC01D24448046082
:101340002020022300904148062102680D2005F06C
:10135000D4FF2020022300903D48142102680D2074
:1013600005F0CBFF3B480088022877D1254800785C
:101370000028FAD120200223224605210090184699
:1013800005F0BBFF1C480078012803D019480078FD
:101390000128EAD11A4800780128E6D11C480068E3
:1013A000000E8DF804001A480068000C8DF8050046
:1013B00017480088000A8DF80600154800788DF857
:1013C000070025480078400400F58010054A12887F
:1013D000042303FB02011A4601A802F06AF80C4834
:1013E00000683CE07C000020984300209C00002026
:1013F000180122426A0000206700002068000020D7
:10140000690000209D0000207E0000206500002073
:101410000000002000408F4066000020CAD6B6AF12
:10142000C4A3CABD00000000D7D4B6AFC4A3CABDD0
:10143000000000004D616E75616C204D6F646500A9
:101440004175746F204D6F646500000094000020AA
:1014500098000020820000207300002065E0C00199
:10146000F94990FBF1F0663000280ADBF748006884
:10147000C00190FBF1F06630F549F64A12888854B5
:1014800004E00020F249F34A1288885401200090B9
:10149000EF48F0490988431800220121022006F094
:1014A000C5F9ED480068E9490968884203DAE74868
:1014B0000068E9490860E9480068E4490968884229
:1014C00003DDE2480068E54908602146E448006819
:1014D00007F040FB01D2E24804602146E148006881
:1014E00007F042FB01D2DF48046020200223009075
:1014F000DB4806210268184605F0FFFE2020022383
:101500000090D84814210268184605F0F6FED1482C
:101510000088401CCF4908800846008847F6FF71C4
:10152000884202DB0020CB490880CF480088012890
:1015300008D1202001230090C448052102681846E4
:1015400005F095FEC9480078012806D1C6490878FB
:10155000FFF7FEFA0020C5490870BDE8FE8310B50C
:10156000A0B004468021684607F0D7F8C049095D5D
:1015700001EBC10202EB4111802202EB4100522239
:10158000694601F027FD9DF84A009DF8491040EAA0
:101590000120B8490881084600894FF6FF7303EA25
:1015A0008002B348005D400400F58011A848001D8A
:1015B00001F0E7FE0120A6490870084644709DF836
:1015C000490088709DF84A00C870AA480089042123
:1015D00001EB80029E49EB2002F02DFB20B010BDF4
:1015E00030B5A1B000240025A3480078441E1FE0B8
:1015F000802101A807F091F8681CC5B204EBC40172
:1016000001EB4411802202EB410188B252220DF11C
:10161000060101F0DFFC00208DF804008DF8055074
:1016200093494C55542201A9EB2002F004FB641E9F
:10163000002CDDDA91480078012825D163241FE0D1
:10164000802101A807F069F8681CC5B204EBC40149
:1016500001EB4411802202EB410188B252220DF1CC
:10166000060101F0B7FC00208DF804008DF805504C
:101670007F494C55542201A9EB2002F0DCFA641E8C
:101680007D4800788442DBDA21B030BD2DE9F84393
:1016900004468846A578E778267900200090012D39
:1016A00001D0FF2D7ED1FA2F7DD1092E7CD2DFE82B
:1016B00006F080051421252F363E63000D2005F02D
:1016C000D3FC0D206849088000206D4908706D49E1
:1016D000087001206C4908706CE0002005F0C4FC23
:1016E00000206149088066490870664908706649AB
:1016F00008705FE06079654908705BE060790128F7
:1017000002D16349087002E000206149087051E08D
:101710005D480078012801D1FFF762FF4AE05A488E
:101720000078012802D16079FFF719FF42E0FFF746
:1017300064F846490860084600685649086008464B
:101740000068000E8DF8000008460068000C8DF857
:10175000010008460088000A8DF80200084600785B
:101760008DF8030004226946032001F043FC494838
:101770000068494908601DE034480068000E8DF893
:10178000000032480068000C8DF801002F480088E6
:10179000000A8DF802002D4800788DF8030004221D
:1017A000694602E00AE007E003E0EE2002F043FAB7
:1017B00000E000BF00BF00E000BF00BFBDE8F8834D
:1017C00010B501220221032005F0FFFC10BD70B509
:1017D00005460C46082D04D1072C02D1642005F0E3
:1017E00041FA70BD7047704770477CB505460E469C
:1017F000144600200190052D25D1022E23D1642C02
:1018000000D304B322460121052005F0BCFD0120D0
:101810000023224604210090052005F028FD3720F2
:1018200000EB4400C0F1FF021CA101A807F08EFDEF
:101830009DF8040005F0FEF9E0B20190012201A933
:10184000072001F0D7FB7CBDE15002000000002022
:10185000984300207C0000208C0000209000002095
:1018600094000020980000208200002064000020E6
:10187000FCC3002060C40020730000207B00002017
:101880006A000020670000209D0000209C000020CE
:101890006500002060000020040000202563000097
:1018A000F8B504460E461546052C0AD1F7480560E2
:1018B000012000230090F54802210268052005F070
:1018C000D6FCF8BD2DE9F04104460D4616461F46EC
:1018D000022C3FD11C2D3DD1ED480078012811D1BB
:1018E000EC48007801280DD1FFF798FAFFF712FBBA
:1018F00000220E21022005F068FC0020E649087055
:10190000E34908700120E24908700020E1490870AD
:10191000E24807700020E2490870E24800210160B7
:1019200081804021E04806F0F8FEDC48027831462C
:10193000DD4806F0D9FE4021DC4806F0EEFED7482F
:1019400002783146D94806F0CFFE324619210220EE
:1019500005F064FC012C0AD1142D08D1D44AD5A17C
:10196000304606F0EDFEFEF748FFD3490860BDE8BB
:10197000F0817FB50024002500BF07E0A01C81B2E4
:10198000AFF6BC12032005F049FC641C0A2CF5DB01
:10199000CA480078052190FBF1F0C9490870C94890
:1019A000007800BBC5480078052190FBF1F201FBEF
:1019B000120030B9C148007890FBF1F0C2490870BC
:1019C00007E0BE480078052190FBF1F0401CBE49BD
:1019D0000870012000230090B84802781D210320E0
:1019E00005F045FC0AE01420B749087001200023E7
:1019F00064221D210090032005F039FCB2480078D4
:101A000040B901200023024610210090032005F078
:101A10002EFC08E0012000230090AB480278102142
:101A2000032005F024FC012000230090A748027841
:101A3000521C1921032005F01AFCA2480078002846
:101A400049D1A24800789E490978884243DC9F48E2
:101A5000007800EB800099490978081A441E30E0AC
:101A6000002C2DDBE0B2FFF796F9994800789849F1
:101A70004978974A9278964B1B79CDE90032CDE9A7
:101A8000021093484379827992A19B4807F05EFC4B
:101A9000994AA91C032005F0C1FB40220021974868
:101AA00006F034FE40228049944806F01DFE934A19
:101AB000E91D032005F0B2FB91494C55681CC5B2E5
:101AC000641E82480078401C00EB80007B49097846
:101AD000081AA042C4DD7B48007801287ED17748EF
:101AE0000078052808DB75480078052190FBF1F2A5
:101AF00001FB1200C6B201E0704806787348007816
:101B00006F49097888426ADC70480078401C00EB15
:101B100080006A490978081A401E002842D46B48A0
:101B2000007800EB800065490978081A441E2DE012
:101B3000E0B2FFF730F96648007865494A7889785D
:101B4000634B1B79CDE90031CDE902206048437930
:101B5000827960A1684807F0F9FB674AA91C032055
:101B600005F05CFB40220021644806F0CFFD4022D6
:101B70004D49624806F0B8FD604AE91D032005F0B2
:101B80004DFB5F494C55681CC5B2641E4F48007838
:101B9000401C00EB800049490978081A401EA04209
:101BA000C6DD3BE04948007800EB800043490978F6
:101BB000081A441E30E0E0B2FFF7EDF84448007820
:101BC00043494A788978424B1B79CDE90031CDE908
:101BD00002203F48437982793EA101E0D9E091E0BB
:101BE000454807F0B3FB444AA91C032005F016FB47
:101BF00040220021414806F089FD40222A493F4801
:101C000006F072FD3D4AE91D032005F007FB3C4943
:101C10004C55681CC5B2641E002CCCDA63242DE040
:101C2000E0B2FFF7B8F82A48007829494A7889785D
:101C3000274B1B79CDE90031CDE9022024484379B7
:101C4000827924A12C4807F081FB2B4AA91C032090
:101C500005F0E4FA40220021284806F057FD402212
:101C60001149264806F040FD244AE91D032005F0ED
:101C7000D5FA23494C55681CC5B2641EC6F105004F
:101C8000C0F16400A042CBDD83E0000088000020AA
:101C9000690000207E0000206A00002081000020F2
:101CA000740000207500002018420020D842002057
:101CB000B000002025640000B40000207300002064
:101CC000A70000207B000020A8000020A600002024
:101CD0006C000020253032642D253032642D2530F3
:101CE0003264202025303264203A25303264203A94
:101CF0002530326400000000584200209842002045
:101D000098C30020FE480078401E00EB8000C0F120
:101D10006300C6F10501441A2EE0E0B2FFF73BF87C
:101D2000F8480078F7494A788978F64B1B79CDE96D
:101D30000031CDE90220F34843798279AFF26C019A
:101D4000F14807F003FBF04AA91C032005F066FAEE
:101D500040220021ED4806F0D9FC4022EC49EB4836
:101D600006F0C2FCE94AE91D032005F057FAE949EB
:101D70004C55681CC5B2641EE1480078401E00EB5B
:101D80008000C0F16300C6F10501401A001FA042A7
:101D9000C3DD7FBDF8B504460D46164632462946DA
:101DA000204605F07AFDDC480078002809DD4FF474
:101DB0000070DA4B324629460090204605F036FD89
:101DC00008E0D7480089D54B324629460090204686
:101DD00005F02CFDF8BD2DE9F84305460E461746E3
:101DE0001C46DDF82080A00100F50070CB494318A7
:101DF0003A4631462846CDF8008005F017FDBDE88B
:101E0000F8832DE9F0479AB082460C469146BAF124
:101E1000020F78D1042C26D100201990FEF7EDFC9A
:101E2000C049086008460068BF4908600846006865
:101E3000000E8DF8640008460068000C8DF86500FF
:101E400008460088000A8DF86600084600788DF87C
:101E50006700042219A9032001F0CCF8B2480068F9
:101E6000B249086000BF102C1AD1B9F1010F17D187
:101E7000AF480078012803D0AE48007801280FD180
:101E8000FEF7CCFFFFF746F800220E21022005F0F6
:101E90009CF90020A8490870A5490870A749087056
:101EA0001A2C2AD10020A3490870A5490870A54919
:101EB0000860A5490860A5490860A5490860202078
:101EC0000123002206210090022005F0D0F92020F5
:101ED0000123002214210090022005F0C8F90022FD
:101EE0000121022005F0D9FC00209A4908804FF416
:101EF00000420021894806F009FC1C2C03D1FEF7A2
:101F00008DFFFFF707F8BAF1030F22D1162C10D17D
:101F1000B9F1010F0DD190480078401E7849097839
:101F2000884206DD76480078401C75490870FFF746
:101F300020FD182C0DD1B9F1010F0AD1704800789D
:101F4000002806DD6E480078401E6D490870FFF7D6
:101F500010FDBAF1040F18D100201990012C08D1FE
:101F60007E4908701990012219A9082001F042F851
:101F70000AE0022C08D1012078490870199001224A
:101F800019A9082001F036F800BFBAF1050F18D1E1
:101F9000002019900A2C08D171490870199001226B
:101FA00019A9022001F026F80AE00B2C08D1012023
:101FB0006B4908701990012219A9022001F01AF842
:101FC00000BFBAF1060F7AD1062C2FD1B9F1000F5C
:101FD00002D0B9F1020F29D162480088624909880C
:101FE00088420DDA5F480088401C5E490880402026
:101FF000009008460378002205215046FFF7EBFECB
:10200000584800885849098888420FD157480078B5
:1020100060B95748007800905248037800220521A3
:102020005046FFF7D8FE012050490870072C32D1E6
:10203000B9F1000F02D0B9F1020F2CD14948008844
:1020400000281BDD47480088401E464908800020C4
:102050004649087000220521062005F01EFC4FF4B9
:10206000007000902D483F490988402202FB01037F
:1020700000220521504605F0D9FB0CE039480088C4
:1020800048B900220521062005F007FC00220521A1
:102090005046FFF77FFE012003460090314802883A
:1020A000521C0921504605F0E2F801200346009039
:1020B0002D480288521C0A21504605F0D8F8BAF182
:1020C000070F7DD1062C6AD1B9F1000F02D0B9F10A
:1020D000020F64D1234800882349098888420DDA19
:1020E00020480088401C1F49088040200090084676
:1020F0000378002205215046FFF76DFE194839E0AC
:10210000A60000206C0000205842002098420020C9
:102110001842002098C300209E0000209843002011
:1021200060C40020000000206000002004000020A7
:10213000690000207E0000206A0000206700002067
:102140006800002094000020980000208C000020EF
:10215000900000207C000020A800002066000020E5
:102160009C000020A4000020A0000020A900002066
:10217000A20000200088FE49098888420FD1FD484E
:10218000007860B9FC4800780090FC480378002291
:1021900005215046FFF71FFE0120F6490870072C65
:1021A00034D1B9F1000F02D0B9F1020F2ED1F348AA
:1021B000008800281DDDF1480088401EEF4900E03E
:1021C00038E008800020EB490870002205215046C5
:1021D00005F063FB4FF400700090E948E749098877
:1021E000402202FB010300220521504605F01EFBA0
:1021F0000CE0E248008848B900220521504605F06D
:102200004CFB002205215046FFF7C4FD0120034688
:102210000090DA480288521C0921504605F027F840
:10222000012003460090D2480288521C0A215046E1
:1022300005F01DF8BAF1080F7AD1062C2FD1B9F1AB
:10224000000F02D0B9F1020F29D1CC480088C8494B
:10225000098888420DDAC9480088401CC7490880AF
:102260004020009008460378002205215046FFF7E1
:10227000B2FDC2480088BE49098888420FD1BD48D6
:10228000007860B9BC4800780090BC480378002210
:1022900005215046FFF79FFD0120B6490870072C25
:1022A00032D1B9F1000F02D0B9F1020F2CD1B348ED
:1022B000008800281BDDB1480088401EAF49088017
:1022C0000020AC49087000220521504605F0E5FACF
:1022D0004FF400700090AA48A8490988402202FBE8
:1022E000010300220521504605F0A0FA0CE0A348A6
:1022F000008848B900220521504605F0CEFA002298
:1023000005215046FFF746FD0120034600909B48FB
:102310000288521C0921504604F0A9FF01200346FF
:10232000009093480288521C0A21504604F09FFFF7
:10233000BAF1090F7AD1062C2FD1B9F1000F02D0D2
:10234000B9F1020F29D18D4800888949098888424E
:102350000DDA8A480088401C884908804020009097
:1023600008460378002205215046FFF734FD8348D4
:1023700000887F49098888420FD17E48007860B97B
:102380007D48007800907D48037800220521504662
:10239000FFF721FD012077490870072C32D1B9F1F0
:1023A000000F02D0B9F1020F2CD174480088002828
:1023B0001BDD72480088401E7049088000206D496E
:1023C000087000220521504605F067FA4FF40070AE
:1023D00000906B4869490988402202FB01030022F2
:1023E0000521504605F022FA0CE06448008848B9FF
:1023F00000220521504605F050FA002205215046E2
:10240000FFF7C8FC0120034600905C480288521C7C
:102410000921504604F02BFF012003460090544848
:102420000288521C0A21504604F021FFBAF10A0F1B
:102430007AD1062C2FD1B9F1000F02D0B9F1020FD9
:1024400029D14E4800884A49098888420DDA4B480C
:102450000088401C494908804020009008460378C5
:10246000002205215046FFF7B6FC44480088404949
:10247000098888420FD13F48007860B93E4800780B
:1024800000903E480378002205215046FFF7A3FC48
:10249000012038490870072C32D1B9F1000F02D061
:1024A000B9F1020F2CD13548008800281BDD3348D4
:1024B0000088401E3149088000202E490870002203
:1024C0000521504605F0E9F94FF4007000902C48C2
:1024D0002A490988402202FB0103002205215046B7
:1024E00005F0A4F90CE02548008848B90022052130
:1024F000504605F0D2F9002205215046FFF74AFC6C
:102500000120034600901D480288521C09215046B4
:1025100004F0ADFE01200346009015480288521CCD
:102520000A21504604F0A3FEBAF10B0F74D1012C1E
:1025300002D1002013490870042C6DD1002019909D
:1025400018901148006806F09EFA00220F4BCDE962
:10255000140106F0B7F905460E460D4909680D4A03
:102560001268881A06F08FFA07462A46334613E0A7
:10257000A0000020A9000020A2000020A40000204C
:10258000984300206B000020B00000200000F03FC6
:10259000B4000020AC00002006F006FACDE91601D8
:1025A00006F0BBFAFE490860FE480068000E8DF890
:1025B0006400FC480068000C8DF86500F94800884C
:1025C000000A8DF86600F74800788DF8670004224D
:1025D00019A9092000F00EFDF14800788DF864007B
:1025E000EF4840788DF86500ED4880788DF86600FA
:1025F000EB48C0788DF86700042219A90D2000F07F
:10260000F9FC042218A9032000F0F4FC0020E6499C
:102610000860E649087000BFBAF10E0F5BD1042CC8
:1026200059D10025542105A806F077F800BF09E02C
:10263000522205FB02F101F1800005A900F0DAFC4D
:10264000681CC5B2642DF3DB00252BE02846FEF79D
:10265000A2FBD74801784078D54A9278D44B1B79B1
:10266000CDE90032CDE90201D14843798279AFF654
:102670009C11D04806F06AFECE4AA91C032004F043
:10268000CDFD40220021CC4806F040F84022CB4945
:10269000C94806F029F8C84AE91D032004F0BEFD28
:1026A000681CC5B2052DD1DB0020C5490870C5499D
:1026B0000870022205A900F09DFC0020C249088094
:1026C000012000231A4619210090032004F0CFFDB9
:1026D000FFF74FF900BFBAF1120F08D1072C06D14E
:1026E0000120B2490870FEF788F8AE4908601AB0B8
:1026F000BDE8F0873EB50446B4480480014608783A
:10270000FEF726FA0CB905F0F1FD022C37D1FEF7E1
:1027100001FCAFA21921022004F080FDACA21B2114
:10272000022004F07BFD0020AA490870AA48007826
:1027300090B9AA48007820B9A94A1D21022004F0C6
:102740006DFDA6480078012819D1A54A0C321D213B
:10275000022004F063FD12E0A048007828B9A04AE6
:1027600018321D21022004F059FD9C4800780128F0
:1027700005D19B4A24321D21022004F04FFD032C79
:102780000ED1FFF7F6F800209649087096490880A8
:102790009649087096490860486008819549088004
:1027A000042C10D18C48007820B901221146042055
:1027B00004F00BFD88480078012804D10122022191
:1027C000042004F002FD052C27D100200190029086
:1027D000082201A900F0FEFB9DF80B200221052034
:1027E00004F0D1FD012000909DF80B20002304216E
:1027F000052004F03CFD7948007820B901220A2127
:10280000052004F0E2FC75480078012804D101227B
:102810000B21052004F0D9FC00BF062C38D1A11FE4
:10282000754A505CFEF722FA002205212046FFF788
:10283000B1FA202000906E48022319460268204613
:1028400004F05BFD202000906948022303214268C8
:10285000204604F052FD20200090654802890123A3
:102860000421204604F003FD012003460090614846
:102870000288521C0921204604F0F9FC012003467D
:10288000009059480288521C0A21204604F0EFFCAF
:10289000072C38D1A11F584A505CFEF7E7F90022F7
:1028A00005212046FFF776FA2020009050480223A9
:1028B00019460268204604F020FD202000904C4874
:1028C000022303214268204604F017FD20200090D7
:1028D0004748028901230421204604F0C8FC012056
:1028E0000346009043480288521C0921204604F008
:1028F000BEFC0120034600903B480288521C0A217E
:10290000204604F0B4FC082C38D1A11F3A4A505C90
:10291000FEF7ACF9002205212046FFF73BFA202004
:1029200000903348022319460268204604F0E5FC73
:10293000202000902E48022303214268204604F004
:10294000DCFC202000902A48028901230421204633
:1029500004F08DFC01200346009026480288521C9A
:102960000921204604F083FC0120034600901E4804
:102970000288521C0A21204604F079FC092C67D1F8
:10298000A11F1D4A505CFEF771F900220521204667
:10299000FFF700FA202000901548022319462DE089
:1029A000B8000020AC000020040000206B000020D4
:1029B0006C0000205842002098420020184200205D
:1029C000730000207B0000207C000020820000209B
:1029D0002000000069000020660000209C0000200C
:1029E0001C1400089E000020A0000020A20000206F
:1029F00060C40020A400002098C300200268204684
:102A000004F07BFC20200090FE4802230321426852
:102A1000204604F072FC20200090FA48028901232D
:102A20000421204604F023FC012003460090F648D0
:102A30000288521C0921204604F019FC012003469B
:102A40000090F2480288521C0A21204604F00FFC34
:102A50000A2C38D1A11FEE4A505CFEF707F900227C
:102A600005212046FFF796F920200090E548022333
:102A700019460268204604F040FC20200090E148FE
:102A8000022303214268204604F037FC20200090F6
:102A9000DC48028901230421204604F0E8FB0120E0
:102AA00003460090D8480288521C0921204604F0B1
:102AB000DEFB012003460090D4480288521C0A2104
:102AC000204604F0D4FB3EBD2DE9FC4F0BAC70CC8E
:102AD00006F00F0B4FEA261E0EEB8E0E0BEB4E0B85
:102AE0000BF0FF0700F00F0B4FEA201E0EEB8E0ECF
:102AF0000BEB4E0B0BF0FF0C01F00F0B4FEA211EFE
:102B00000EEB8E0E0BEB4E0B0BF0FF0802F00F0BD3
:102B10004FEA221E0EEB8E0E0BEB4E0B0BF0FF0955
:102B200003F00F0B4FEA231E0EEB8E0E0BEB4E0B3A
:102B30000BF0FF0A04F00F0B4FEA241E0EEB8E0E73
:102B40000BEB4E0B0BF0FF0BCDF804B005F00F0BA9
:102B50004FEA251E0EEB8E0E0BEB4E0B0BF0FF0B10
:102B6000CDF800B0DFF8ACB28BF80070DFF8A4E26B
:102B7000DDF800B08EF801B0DDF804B08EF802B0D8
:102B8000F3468BF803908BF804A08BF805808BF844
:102B900006C0BDE8FC8F7047704770472DE9FF5FA6
:102BA00004460D466778A67894F807802079E17886
:102BB00040EA0129A079617940EA012B207A0106D7
:102BC000607A41EA0041A07A41EA0020E17A0843B4
:102BD0000390A5F10D0A0F2F3FD00CDC0B2F34D042
:102BE00004DC012F13D0032F74D111E00C2F24D05B
:102BF0000D2FF9D125E0552F6DD0B12F49D0C22F1F
:102C000002D0F72FF0D12EE0834806708FE000BF8E
:102C1000824B5B79DFF804C29CF804C043EA0C22C3
:102C20007E4BDB78DFF8F4C19CF802C043EA0C214C
:102C30007A4B5878FFF7B1FF79E00120FFF7ACFF3E
:102C400075E00020FFF7A8FF71E0A81F82B273496A
:102C5000891C0120FFF79FFF69E000221146104602
:102C6000FFF799FF63E06D48007A6C49C9796B4AB8
:102C70009279DFF8A8C1CDE9002102909CF80530D7
:102C80009CF804209CF803109CF80200FFF71CFF3E
:102C90004DE0012E03D14846FFF72CFD42E0A8F19C
:102CA00010000C283CD2DFE800F0060C171D233B77
:102CB0003B363B3B2930627A59464846FFF7A1F83C
:102CC0002FE00AF0FF0304F1080259464846FEF7D8
:102CD000F9FD26E02AE026E059464846039AFEF729
:102CE000DFFD1EE059464846039AFEF77EFD18E0D8
:102CF00059464846039AFEF777FD12E0637A227A36
:102D000059464846FEF76FFD0BE0227A5946484681
:102D1000FEF768FD05E059464846FEF758FD00E01D
:102D200000BF00BF03E0FEF74BFD00E000BF00BFA7
:102D3000BDE8FF9F70B5002400254021374803F00F
:102D4000BFF904464021364803F0F7F90546002C48
:102D500008DD32484078072804D021462F48FFF785
:102D60001DFF15E0002C13DD2C48407807280FD1FB
:102D700071B600BF2B48006800F4E0602A490843A0
:102D8000001D28490860BFF34F8F00BF00BFFEE75A
:102D9000002D03DD29462248FEF778FC2348007801
:102DA000012828D10F2004F05FF901210F2004F041
:102DB00000FC02201D4908701748007828B91CA2A1
:102DC00002210F2004F02AFA04E01DA202210F20A4
:102DD00004F024FA4CF2503003F02CFA01210F20B9
:102DE00004F00CFC002004F03FF900201749088093
:102DF0000120174908700D480078032837D11120A9
:102E000028E0000060C40020A4000020A0000020F2
:102E100098C300206C0000206600002018430020AA
:102E2000584300200CED00E00000FA050D000020E2
:102E3000BFAABBFAD6D0A1A3A1A3A1A30000000002
:102E40006C6F6164696E672E2E2E00008200002078
:102E50005500002004F008F90121112004F0A9FB1D
:102E600004200D49087049F6404003F0E3F90B488F
:102E7000007818B90A48007805280CDB01200949B8
:102E8000087000200649087004490870FEF7E0F950
:102E900000200449087070BD0D000020840000204F
:102EA0007F0000208000002010B500F0B5F810BDB4
:102EB00070B50446002600F0C6F8A02000F075F9B1
:102EC00000F002F9201200F070F900F0FDF825463C
:102ED000E11704EB11610912A4EB0121C8B200F063
:102EE00064F900F0F1F800F0AEF8A12000F05DF90F
:102EF00000F0EAF8002000F08CF9064600F0C3F874
:102F0000304670BD70B504460E4600F09CF8A02017
:102F100000F04BF900F0D8F8201200F046F900F06C
:102F2000D3F82546E11704EB11610912A4EB012146
:102F3000C8B200F03AF900F0C7F8304600F035F9B1
:102F400000F0C2F800F09FF8022000F08EFC70BD87
:102F50002DE9F04105460E461746002409E0E2003F
:102F600026FA02F2D1B22A1990B2FFF7CBFF601C09
:102F7000C4B2BC42F3DBBDE8F0812DE9F041074665
:102F80000C460026002509E036023919491B491E66
:102F900088B2FFF78DFF0644681CC5B2A542F3DB7B
:102FA0003046BDE8F08110B5FF20FFF781FF0446F1
:102FB000552C01D1002010BD5521FF20FFF7A2FFA5
:102FC000FF20FFF775FF0446552C01D10020F2E7E2
:102FD0000120F0E770B506460C46154607E030467E
:102FE000721C96B2FFF764FF04F8010B6D1E002DF2
:102FF000F5D170BD70B505460C46164606E0217841
:103000002846FFF77FFF681C85B2641C301EA6F1BE
:103010000106F4D170BD000008B50121082001F0BF
:1030200011FAC020ADF8000010208DF80300032035
:103030008DF802006946904800F048FFC0218E4894
:1030400000F0F1FF08BD10B58B48006820F070401B
:10305000894908600846006840F040500860012037
:10306000864908608649C1F89801042000F0FDFBFC
:10307000002082490860042000F0F7FB002080490E
:10308000C1F8980110BD10B57B48006820F0704071
:10309000794908600846006840F040500860002008
:1030A0007649091F08607649C1F89C01042000F0A8
:1030B000DCFB01207149091F08607149C1F89C01BE
:1030C000042000F0D2FB10BD10B500246A4800684F
:1030D00020F07040684908600846006840F00040F1
:1030E000086001206549086000F0BFFB01206449C9
:1030F000C1F8980100F0B9FB07E0601CC4B2FA2CDB
:1031000003DDFFF7C0FF012010BD5C488038006878
:103110000028F2D15949091F086000BFF4E710B533
:1031200000205649091F08605348006820F070408D
:10313000514908600846006840F04050086000208F
:103140004F49C1F89C01022000F08FFB01204B4940
:10315000091F0860022000F088FB00204849C1F8E0
:10316000980110BD10B500204449091F086042486D
:10317000006820F07040404908600846006840F050
:103180004050086001203E49C1F89C01022000F037
:103190006CFB01203949091F0860022000F065FB23
:1031A00000203749C1F8980110BD70B50446324877
:1031B000006820F07040304908600846006840F020
:1031C0004050086000202D49091F086000251DE0BF
:1031D000E00918B101202949086002E000202749D0
:1031E00008606006040E022000F03FFB0120234926
:1031F000091F0860022000F038FB00202049C1F8B8
:103200009801022000F031FB681CC5B2082DDFDBFD
:1032100070BD70B5054600241748006820F0704066
:10322000154908600846006840F000400860002624
:1032300017E000201149091F0860022000F015FB6B
:1032400001200F49C1F898016006040E0B48803830
:10325000006808B1601CC4B2012000F006FB701CBD
:10326000C6B2082EE5DB15B9FFF77CFF01E0FFF7DA
:1032700056FF204670BD0000000C01409C81214299
:103280000080214210B500240020CF490860902022
:1032900000F0A4F9002000F0A1F9002000F09EF950
:1032A000002000F09BF9FF2000F098F944EA002488
:1032B000FF2000F093F904430120C449C1F8B00194
:1032C000204610BD08B50121082001F0BBF84FF4DD
:1032D0008050ADF8000010208DF8030003208DF819
:1032E00002006946BA4800F0F1FD4FF48051B84839
:1032F00000F099FE0120B449086000F096F9002022
:1033000000F0D9F9FFF7BEFFB249088008BD10B53B
:1033100000240020AC490860052000F05FF9FF2080
:1033200000F05CF904460120A849C1F8B00120462C
:1033300010BD10B504460020A3490860012000F02C
:103340004DF9204600F04AF90120A049C1F8B0012A
:1033500010BD10B500209C490860062000F03EF921
:1033600001209A49C1F8B00110BD10B5002096495E
:103370000860042000F032F901209449C1F8B0013E
:1033800010BD2DE9F04106460C46174600208E4937
:103390000860032000F022F9C4F3074000F01EF992
:1033A000C4F3072000F01AF9E0B200F017F9002585
:1033B00005E0FF2000F012F97055681C85B2BD428F
:1033C000F7DB012080490860BDE8F08110B500BF3F
:1033D000FFF79DFF00F001000028F9D110BD2DE995
:1033E000F04106460C461746FFF7B3FF002076492A
:1033F0000860022000F0F2F8C4F3074000F0EEF895
:10340000C4F3072000F0EAF8E0B200F0E7F8002586
:1034100004E0705D00F0E2F8681C85B2BD42F8DBA4
:10342000012069490860FFF7D1FFBDE8F0812DE96F
:10343000F04107460E461446F0B2C0F58075AC4226
:1034400000DC254612E02A4631463846FFF7C7FF22
:10345000AC4200D10BE02F442E44601B84B2B4F583
:10346000807F02DD4FF4807500E02546EBE700BF6A
:10347000BDE8F08110B504462403FFF76AFFFFF7AB
:10348000A5FF002050490860202000F0A7F8C4F3F1
:10349000074000F0A3F8C4F3072000F09FF8E0B263
:1034A00000F09CF801204949C1F8B001FFF78EFFF8
:1034B00010BD2DE9F05F81460F461646DFF818B1C2
:1034C0004FEA1738C7F30B0ACAF58054A64200DC4E
:1034D000344644E04FEA08314FF480525846FFF733
:1034E00050FF002508E00AEB05001BF80000FF284C
:1034F00000D003E0681C85B2A542F4DB00BFA54202
:1035000016DA4046FFF7B6FF002507E019F8050078
:1035100005EB0A010BF80100681C85B2A542F5DB3A
:103520004FEA08314FF480525846FFF780FF04E01D
:10353000224639464846FFF77AFFA64200D10FE0FF
:1035400008F101084FF0000AA1442744301B86B25D
:10355000B6F5805F02DD4FF4805400E03446B9E7F1
:1035600000BFBDE8F09F10B5FFF7F3FEFFF72EFF99
:10357000002015490860C72000F030F801201349E9
:10358000C1F8B001FFF722FF10BD10B500200E49B1
:103590000860B92000F022F801200C49C1F8B00100
:1035A000032000F062F910BD10B500200649086044
:1035B000AB2000F013F801200449C1F8B00103204A
:1035C00000F053F910BD0000B0812142008021427B
:1035D000000C0140BC0000206CC4002070B5054602
:1035E000002405E0601CC4B2C82C01DD002070BDC1
:1035F00002213A4802F0A1FC0028F3D029463748BE
:1036000002F048FC002405E0601CC4B2C82C01DDB7
:103610000020ECE70121314802F08FFC0028F3D0B4
:103620002E4802F039FCC0B2E1E700B587B00121B5
:10363000082000F007FF0121880300F010FF4FF47D
:103640006040ADF8180018208DF81B0003208DF89D
:103650001A0006A9224800F039FC4FF460412048C6
:1036600000F0E1FC0020ADF804004FF48270ADF8EA
:1036700006000020ADF808000220ADF80A00012085
:10368000ADF80C004002ADF80E003820ADF8100087
:103690000020ADF812000720ADF8140001A90F4872
:1036A00002F022FB01210D4802F0C3FBFF20FFF7CF
:1036B00095FF07B000BD10B50446084800884FF6D6
:1036C000C7710840054908800846008820430880E3
:1036D0000121024802F0ADFB10BD0000003800409F
:1036E000000C014008B50121102000F0ABFE4FF4A2
:1036F0000040ADF8000010208DF8030003208DF885
:1037000002006946454800F0E1FB4FF48041434820
:1037100000F089FC08BD08B50121142000F092FEDC
:103720004020ADF8000048208DF8030003208DF8FC
:1037300002006946394800F0C9FB0220ADF80000DC
:1037400010208DF8030003208DF8020069463448EC
:1037500000F0BCFB0420ADF8000048208DF8030009
:1037600003208DF8020069462D4800F0AFFB0820C9
:10377000ADF8000028208DF8030003208DF802002A
:103780006946274800F0A2FB0221254800F04DFCC5
:1037900008BD2448006830B92348007818B90120D2
:1037A000214908700CE01F480068012808D11E4814
:1037B0000078012804D100201B4908701B490870BB
:1037C0001A480078C82810DB1948007868B9012029
:1037D0001749087000201449087014490870012026
:1037E00010497C3108601349087010480078C828D7
:1037F0000BDB0F480078022807D103200C49087022
:10380000002009490870094908700948007804280F
:1038100003D1002003497C3108607047001001404B
:103820000008014008012142BE000020BF00002026
:103830000D000020C500002010B56FF0040000F05E
:10384000C6FA2E4800682E49B0FBF1F02D490870E9
:103850000846007800EB4001C1EBC0104FF6FF7145
:1038600001EAC0002849088010BD0146254A1278A7
:103870004A434FF0E0235A6100229A611A461269C6
:1038800042F001021A6100BF4FF0E022106900F01F
:1038900001021AB100F48032002AF5D04FF0E02284
:1038A000126922F001024FF0E0231A6100229A61AE
:1038B00070470146144A12884A434FF0E0235A6188
:1038C00000229A611A46126942F001021A6100BF91
:1038D0004FF0E022106900F001021AB100F48032CA
:1038E000002AF5D04FF0E022126922F001024FF0D9
:1038F000E0231A6100229A61704700001C0000203A
:1039000000127A00C6000020C80000201FB5012167
:10391000022000F0A4FD6320ADF8080041F61F402E
:10392000ADF804000020ADF80A00ADF8060001A9CA
:103930000E4801F051F9012211460C4801F0C3FC78
:1039400001210A4801F07EFF1D208DF800000120B2
:103950008DF801008DF802008DF80300684600F034
:10396000ECF90121014801F093FC1FBD0004004067
:1039700010B586B004460121042000F063FD01214A
:10398000082000F05FFD0121480400F068FD0420DC
:10399000ADF8140018208DF8170003208DF81600DC
:1039A00005A9674800F092FA0820ADF81400042039
:1039B0008DF8170003208DF8160005A9604800F067
:1039C00085FA01940020ADF80800ADF80A00ADF8C2
:1039D0000C00ADF810000C20ADF80E0001A95948FC
:1039E00000F0D7FD0121574800F05FFE4021554807
:1039F00000F043FF012240F22551524800F061FEE1
:103A000026208DF8000002208DF8010001208DF89D
:103A100002008DF80300684600F08FF906B010BD73
:103A200010B540F22551474800F030FF002874D00F
:103A3000444800F0ABFEC4B24348008800F40040A4
:103A400000286ED14048008800F40050002852D071
:103A50003D48008800F48050B0B33B48008800F433
:103A60008040A8B1DD2C03D000203749088058E001
:103A70003548008840F40040334908800846007803
:103A800032490C5430480088401C2F49088048E0D7
:103A9000CC2C0FD12C48008840F480402A49088063
:103AA0000846007829490C5427480088401C2649BC
:103AB000088036E02448007824490C5422480088C5
:103AC000401C214908802CE0FFE7BB2C0FD11E4889
:103AD000008840F480501C490880084600781B4943
:103AE0000C5419480088401C1749088019E0002030
:103AF0001549088015E0AA2C10D11348008840F41D
:103B00000050114908800846007810490C540E48AE
:103B10000088401C0C49088003E00FE000200A499F
:103B200008800948008800F4004038B10748C07890
:103B3000FA2800D100BF00200349088010BD000012
:103B40000008014000440040CA0000206CD400205E
:103B500010B586B004460121042000F073FC012159
:103B6000082000F06FFC0121880400F078FC4FF47D
:103B70008060ADF8140018208DF8170003208DF830
:103B8000160005A9584800F0A1F94FF40060ADF8FF
:103B9000140004208DF8170003208DF8160005A9E5
:103BA000514800F093F901940020ADF80800ADF8F9
:103BB0000A00ADF80C00ADF810000C20ADF80E00B6
:103BC00001A94A4800F0E5FC0121484800F06DFDDC
:103BD0004021464800F051FE012240F22551434861
:103BE00000F06FFD27208DF8000003208DF8010004
:103BF00002208DF8020001208DF80300684600F0D5
:103C00009CF806B010BD70B505460E4640213748F9
:103C100000F026FE00240BE0295D344800F0B2FDE0
:103C200000BF4021314800F01BFE0128F9D1641C7F
:103C3000B442F1D370BD70B505460E4614462C480B
:103C40002C49098801800120294988700846C570DF
:103C500022463146001D04F047FD201D244908443A
:103C6000254909880180A11D2148FFF7CCFF70BDBF
:103C70000FB438B505A800902048009A049905F0C3
:103C800079FB002000901D4804F052FD054600BF5E
:103C90001648008800F040000028F9D000240BE00E
:103CA0001648005D1649088000BF1048008800F0E3
:103CB00040000028F9D0641CAC42F1D338BC5DF858
:103CC00014FB00210F4A116000BF0849098801F068
:103CD00080010029F9D0C0F30801094A11800A497E
:103CE000084A116070470000000C01400048004085
:103CF000600100200F0000201100002070D500207E
:103D00000438014000040140FFFF0F0006488047CF
:103D100006480047FEE7FEE7FEE7FEE7FEE7FEE7B0
:103D2000FEE7FEE7FEE7FEE7AF0500083101000809
:103D300031490143314A1160704770B500210023B9
:103D40000F22C47804B32D4C246804F4E064C4F555
:103D5000E064210AC1F10403CA40447804FA03F183
:103D60008478144021430901254C0678A155047834
:103D700004F01F050124AC4005786D11AD0005F17C
:103D8000E025C5F8004109E0047804F01F0501248E
:103D9000AC401C4D0678761145F8264070BD1A4A95
:103DA0000A400243154B1B1F1A60704739B1134A72
:103DB000121D12680243114B1B1D1A6006E00F4AC8
:103DC000121D126882430D4B1B1D1A607047042898
:103DD00008D14FF0E021096941F004014FF0E022E1
:103DE000116107E04FF0E021096921F004014FF073
:103DF000E0221161704700000000FA050CED00E0C0
:103E000000E400E080E100E080FFFF1F10B5044601
:103E1000CC48844208D10121042000F02DFB002170
:103E2000042000F029FB46E0C748844208D1012164
:103E3000082000F021FB0021082000F01DFB3AE0E3
:103E4000C248844208D10121102000F015FB002156
:103E5000102000F011FB2EE0BD48844208D1012162
:103E6000202000F009FB0021202000F005FB22E0CB
:103E7000B848844208D10121402000F0FDFA002119
:103E8000402000F0F9FA16E0B348844208D101213D
:103E9000802000F0F1FA0021802000F0EDFA0AE025
:103EA000AE48844207D10121801500F0E5FA0021D7
:103EB000A01500F0E1FA10BD10B50121084600F090
:103EC000DBFA0021012000F0D7FA10BD2DE9F04106
:103ED000024600250026002000230024002791F838
:103EE00003C00CF00F0591F803C00CF0100CBCF1EE
:103EF000000F03D091F802C04CEA050591F800C00C
:103F0000BCF1000F31D0146800202BE04FF0010C01
:103F10000CFA00F3B1F800C00CEA03069E4220D16F
:103F200083004FF00F0C0CFA03F7BC4305FA03FCB7
:103F30004CEA040491F803C0BCF1280F06D14FF0FD
:103F4000010C0CFA00FCC2F814C00AE091F803C09E
:103F5000BCF1480F05D14FF0010C0CFA00FCC2F87F
:103F600010C0401C0828D1D31460B1F800C0BCF1C7
:103F7000FF0F34DD546800202EE000F1080C4FF0F4
:103F8000010808FA0CF3B1F800C00CEA03069E42DF
:103F900021D183004FF00F0C0CFA03F7BC4305FA54
:103FA00003FC4CEA040491F803C0BCF1280F05D1CE
:103FB00000F1080C08FA0CF8C2F8148091F803C05C
:103FC000BCF1480F07D100F1080C4FF0010808FAC6
:103FD0000CF8C2F81080401C0828CED35460BDE80D
:103FE000F0814FF6FF710180022181700421C170C0
:103FF00070470246002093680B400BB1012000E09F
:10400000002070470146886880B270470246002051
:10401000D3680B400BB1012000E00020704701463F
:10402000C86880B2704701617047416170470AB14A
:10403000016100E041617047C16070474FF4803218
:104040000A438261816182618269826970470246A6
:104050000020434B18684FF68073184040EA021066
:1040600008433F4B186070473E49C8617047F0B540
:104070000A46002300240021002500F00046B6F186
:10408000004F02D1364EF16901E0354E7168C0F340
:10409000034583B200F44016B6F5401F08D121F065
:1040A00070612F4E766826F070662D4F7E6012E0AC
:1040B00000F48016B6F5801F06D1032606FA05F433
:1040C000A14341F0706106E0460D360103FA06F6A1
:1040D000B14341F0706122B1460D360103FA06F694
:1040E000314300F00046B6F1004F02D11C4EF161A1
:1040F00001E01B4E7160F0BD30B500228B071C0F34
:104100000F2303FA04F2164B08338C1053F82430B3
:104110009343134C08348D1044F8253023468C10FB
:1041200053F824308C07240F00FA04F423430C4C7A
:1041300008348D1044F8253030BD0A49DC31086060
:104140007047000000080140000C014000100140D1
:104150000014014000180140001C014000200140F3
:104160000000014000002042DF48006840F00100EC
:10417000DD49086008464068DC490840DA49486083
:1041800008460068DA490840D749086008460068D0
:1041900020F4802008600846406820F4FE00486053
:1041A0004FF41F0088607047CF49096821F48031BF
:1041B000CD4A11601146096821F480211160B0F5E3
:1041C000803F03D0B0F5802F0ED106E0C6490968C4
:1041D00041F48031C44A116007E0C349096841F4E1
:1041E000A021C14A116000E000BF00BF704710B5B8
:1041F00001460022002300204A11012A02D1BA4CB4
:10420000236806E0022A02D1B74C236A01E0B64CCB
:10421000636A01F01F02012494401C400CB101208C
:1042200000E0002010BD38B50020009000240025DB
:1042300000BF3120FFF7DBFF05460098401C0090CF
:104240000098B0F5A06F01D0002DF2D03120FFF71B
:10425000CEFF08B1012400E00024204638BD01460D
:104260000020A14A106820F0F80040EAC100106068
:104270007047A04908607047024600209A4B586872
:1042800020F47C1042EA01031843974B58607047B2
:1042900098490866704701460020934A506820F00C
:1042A00003000843506070478F48406800F00C00DE
:1042B0007047014600208C4A506820F0F000084307
:1042C0005060704701460020874A506820F4E06043
:1042D00008435060704701460020834A506820F42C
:1042E000605040EAC1005060704729B17E4A527A5E
:1042F00002437D4B5A7204E07B4A527A82437A4BE6
:104300005A7270477B49D8310860704701460020D7
:10431000754A506820F440400843506070470021BF
:10432000714A20321170704A82F82010012802D0A0
:1043300004280AD104E001216B4A2032117005E003
:104340000521694A2032117000E000BF00BF7047AC
:104350006949086070476449096A0143624A116209
:104360007047654944390860704730B50021002224
:10437000002400235C4D6D6805F00C0121B1042977
:1043800005D0082923D105E05C4D056022E05B4D96
:1043900005601FE0544D6D6805F47012524D6D6854
:1043A00005F48034022505EB92421CB9544D554367
:1043B00005600BE04C4D6D6805F400351DB1504DA6
:1043C0005543056002E04D4D5543056002E04B4DFD
:1043D000056000BF00BF444D6D6805F0F00109099C
:1043E000484D6B5C0568DD4045603F4D6D6805F4E8
:1043F000E061090A434D6B5C4568DD4085603A4DDC
:104400006D6805F46051C90A3E4D6B5C4568DD403E
:10441000C560354D6D6805F44041890B3A4D6B5CC4
:10442000C568B5FBF3F5056130BD29B12E4A526967
:1044300002432D4B5A6104E02B4A526982432A4BB6
:104440005A61704729B1284A92690243264B9A6102
:1044500004E0254A92698243234B9A61704729B14F
:10446000214AD2690243204BDA6104E01E4AD26934
:1044700082431D4BDA61704729B11B4AD26802435F
:10448000194BDA6004E0184AD2688243164BDA60AE
:10449000704729B1144A12690243134B1A6104E0B0
:1044A000114A12698243104B1A6170471249403910
:1044B000086070470F49C86470470B49C87170475E
:1044C0000948406A40F080700749486270470146D9
:1044D0000020054A92680A400AB1012000E000204D
:1044E0007047014988727047001002400000FFF8D1
:1044F000FFFFF6FE000042428004424200127A00B2
:1045000000093D00D3000020E300002010B5044660
:10451000FB48844209D101218803FFF7ADFF002148
:104520004FF48040FFF7A8FF32E0F648844209D1FB
:1045300001214804FFF7ADFF00214FF40030FFF7E1
:10454000A8FF25E0F048844209D101218804FFF743
:10455000A0FF00214FF48020FFF79BFF18E0EB48FD
:10456000844209D10121C804FFF793FF00214FF4D1
:104570000020FFF78EFF0BE0E548844208D10121BF
:104580000805FFF786FF00214FF48010FFF781FF39
:1045900010BD2DE9F04786B005460E460024A24620
:1045A00000BFA1460027B08900B100BF2F462C8A6A
:1045B0004CF6FF700440F08804432C82AC894EF620
:1045C000F3100440B08831890843718908430443DB
:1045D000AC81AC8A4FF6FF400440B0890443AC8202
:1045E00001A8FFF7C2FEC648874202D1DDF810A03D
:1045F00001E0DDF80CA0A88900F4004040B10AEB0E
:10460000CA0000EB0A1031684900B0FBF1F807E07E
:104610000AEBCA0000EB0A1031688900B0FBF1F820
:104620006420B8FBF0F004012009642101FB10892B
:10463000A88900F4004040B1322000EBC900B0FB73
:10464000F1F000F00700044308E0322000EB09100D
:104650006421B0FBF1F000F00F0004432C8106B0A0
:10466000BDE8F0874FF41651016000218180C180C0
:1046700001810C21418100218181704710B50246E2
:104680000020108A4FF2FF0318400B884C88234308
:104690008C882343CC8823431843108210BD00210B
:1046A000018041808180C180704721B1828942F4BC
:1046B0000052828104E082894DF6FF731A408281A4
:1046C0007047F0B50346002400260025002040F680
:1046D0006A17B94200D100BF1846C1F3421401F075
:1046E0001F06012707FA06F5012C01D10C3004E062
:1046F000022C01D1103000E014301AB107682F43AA
:10470000076002E00768AF430760F0BD1AB1838A13
:104710000B43838202E0838A8B4383827047028A41
:104720004FF6F0731A400282028A0A4302827047EF
:1047300082894FF2FF731A40828182890A43828103
:10474000704721B1828942F00202828104E08289AD
:104750004FF6FD731A4082817047028A4FF6DF736D
:104760001A400282028A0A430282704721B1028AF9
:1047700042F48042028204E0028A4BF6FF731A4040
:1047800002827047C1F30802828070470146888820
:10479000C0F308007047818941F0010181817047B1
:1047A000028BD2B20283028B42EA0122028370475B
:1047B000028B02F47F420283028B0A43028370471A
:1047C00021B1828A42F02002828204E0828A4FF67E
:1047D000DF731A408282704721B1828A42F0100250
:1047E000828204E0828A4FF6EF731A408282704719
:1047F00021B1828A42F00802828204E0828A4FF666
:10480000F7731A408282704721B1828942F40042D4
:10481000828103E08289C2F30E028281704721B156
:10482000828A42F40062828204E0828A4FF2FF733D
:104830001A4082827047828A4FF6FB731A40828246
:10484000828A0A438282704721B1828A42F0020240
:10485000828204E0828A4FF6FD731A40828270479A
:1048600002460020B1F5007F00D100BF13880B4045
:104870000BB1012000E00020704701F40072B2F596
:10488000007F00D100BFCA430280704770B5024666
:10489000002400230025002040F66A16B14200D112
:1048A00000BFC1F3421501F01F03012606FA03F30E
:1048B000012D02D19689334006E0022D02D1168ADD
:1048C000334001E0968A33400C12012606FA04F4C4
:1048D0001688344013B10CB1012000E0002070BDF7
:1048E00010B50022002340F66A14A14200D100BF97
:1048F0000A1201249440A3B2DC43048010BD0000DE
:10490000003801400044004000480040004C004096
:1049100000500040002044490860091D0860091D3E
:104920000860091D086041483F491431086070471C
:1049300000213D498279002A3AD00A46126803686C
:104940009A430B461A600A1D126803689A430B1DAE
:104950001A60027911440A6803681A430A60324AED
:104960000832126803689A432F4B08331A601A1DE5
:10497000126803689A432C4B0C331A604279102A50
:104980000ED11A1F126803681A43274B08331A60A6
:104990001A1D126803681A43234B0C331A600DE08A
:1049A0002149427911440A6803681A430A6005E004
:1049B000027911440A6803689A430A60704700212B
:1049C000016001710C21417100218171704716490C
:1049D000103109680143144A1032116070470146D2
:1049E0000020114A143212680A400AB1012000E086
:1049F000002070470C4914310860704701460020C0
:104A00000022094B1B6803EA0102074B14331B68A1
:104A10000B4013B10AB1012000E0002070470249A9
:104A2000143108607047000000040140FFFF0F00D0
:104A300010B50446FE48844208D10121C014FFF796
:104A40001BFD0021E014FFF717FDC4E0B4F1804F17
:104A500008D101210846FFF71CFD00210120FFF7C6
:104A600018FDB8E0F348844208D101210220FFF785
:104A700010FD00210220FFF70CFDACE0EE4884425F
:104A800008D101210420FFF704FD00210420FFF7D5
:104A900000FDA0E0E948844208D101210820FFF789
:104AA000F8FC00210820FFF7F4FC94E0E44884427D
:104AB00008D101211020FFF7ECFC00211020FFF7A6
:104AC000E8FC88E0DF48844208D101212020FFF77C
:104AD000E0FC00212020FFF7DCFC7CE0DA48844287
:104AE00008D101214014FFF7C7FC00216014FFF733
:104AF000C3FC70E0D548844209D10121C804FFF706
:104B0000BBFC00214FF40020FFF7B6FC63E0D04867
:104B1000844209D101210805FFF7AEFC00214FF4C2
:104B20008010FFF7A9FC56E0CA48844209D1012150
:104B30004805FFF7A1FC00214FF40010FFF79CFC93
:104B400049E0C548844208D101214020FFF7A1FC7B
:104B500000214020FFF79DFC3DE0C048844208D181
:104B600001218020FFF795FC00218020FFF791FCB8
:104B700031E0BB48844208D101218015FFF789FC50
:104B80000021A015FFF785FC25E0B648844209D135
:104B900001210804FFF770FC00214FF48030FFF77B
:104BA0006BFC18E0B048844209D101214804FFF7AA
:104BB00063FC00214FF40030FFF75EFC0BE0AB48D4
:104BC000844208D101218804FFF756FC00214FF4EC
:104BD0008020FFF751FC10BD00220288944B9842C0
:104BE0000ED0994B98420BD0B0F1804F08D0914B2A
:104BF000984205D0904B984202D0904B984204D1F5
:104C00004FF68F731A404B881A438D4B984207D04A
:104C10008C4B984204D04FF6FF431A40CB881A437E
:104C200002808B8883850B880385814B98420BD04B
:104C3000854B984208D08B4B984205D08A4B9842BE
:104C400002D08A4B984201D10B7A038601238382DA
:104C5000704770B5002400220023058C4FF6FE76C5
:104C600035400584028C8388048B4FF68F752C4069
:104C7000B51E2C400D882C43751E2A400D892A43F1
:104C80004D882A436A4DA8420BD06F4DA84208D0E8
:104C9000744DA84205D0744DA84202D0734DA8426D
:104CA00013D14FF6F7752A404D892A434FF6FB750D
:104CB0002A408D882A434FF6FF652B404FF6FF555B
:104CC0002B408D892B43CD892B4383800483CD8852
:104CD0008586028470BD70B5002400220023058CF7
:104CE0004FF6EF7635400584028C8388048B48F6B6
:104CF000FF752C404FF6FF452C400D884FF6FF7690
:104D000006EA05252C434FF6DF752A400D8906EA91
:104D100005152A434D8806EA05152A43444DA84245
:104D200002D0494DA8421DD14FF67F752A404D89CA
:104D30004FF6FF7606EA05152A434FF6BF752A405F
:104D40008D8806EA05152A434FF6FF352B404FF2B2
:104D5000FF752B408D8906EA85052B43CD8906EA30
:104D600085052B4383800483CD880587028470BD2D
:104D700070B5002400220023058C4FF6FF663540F5
:104D80000584028C8388848B4FF68F752C404FF6F8
:104D9000FC752C400D882C434FF6FF552A400D8999
:104DA0004FF6FF7606EA05252A434D8806EA0525D3
:104DB0002A431F4DA84202D0234DA8421DD14FF2D5
:104DC000FF752A404D894FF6FF7606EA05252A43EE
:104DD0004FF6FF352A408D8806EA05252A434EF610
:104DE000FF752B404DF6FF752B408D8906EA0515A2
:104DF0002B43CD8906EA05152B4383808483CD8818
:104E00008587028470BD70B5002200230024058CC4
:104E10004EF6FF7635400584038C8488828B48F6F5
:104E2000FF752A404FF6FF452A400D8820E000001C
:104E3000002C01400004004000080040000C00402D
:104E4000001000400014004000340140004C0140BC
:104E5000005001400054014000180040001C004078
:104E60000020004000400140004401400048014053
:104E70004FF6FF7606EA05252A434DF6FF752B40CF
:104E80000D8906EA05352B434D8806EA05352B4387
:104E9000FA4DA84202D0FA4DA84208D14BF6FF7550
:104EA0002C408D894FF6FF7606EA85152C438480C9
:104EB0008283CD88A0F84050038470BD828B4FF26E
:104EC000FF331A408283828B4FF6FF7303EA01237C
:104ED0001A4382837047F0B50C4615460022002124
:104EE0000026078C4EF6FF7C07EA0C070784828BAE
:104EF000018C4FF6FF7707EA043640F6FF473A4049
:104F00004FF6FF7707EA05273A434FF6FF7707EAA0
:104F100003373A43D94FB8420ED0D94FB8420BD0DD
:104F2000B0F1804F08D0D74FB84205D0D64FB84225
:104F300002D0D64FB84206D14DF6FF77394046F43D
:104F40008057394305E047F6FF57394044F480570E
:104F5000394382830184F0BD828B4FF6F3731A408C
:104F60008283828B0A4382837047F0B50C461546D4
:104F7000002200210026078C4FF6FF6C07EA0C0781
:104F80000784828B018C4FF6FF7707EA04264FF6E1
:104F90000C773A404FF6FF7707EA03172F433A435F
:104FA000B64FB8420ED0B64FB8420BD0B0F1804FDA
:104FB00008D0B44FB84205D0B34FB84202D0B34F77
:104FC000B84206D14FF6FF57394046F4807739434F
:104FD00005E04FF2FF57394044F48077394382832C
:104FE0000184F0BD028B4FF2FF331A400283028B23
:104FF0004FF6FF7303EA01231A4302837047F0B5AB
:105000000C461546002200210026078C4FF6EF7C47
:1050100007EA0C070784028B018C4FF6FF7707EA3B
:10502000041640F6FF473A404FF6FF7707EA03378A
:105030003A434FF6FF7707EA05273A438F4FB842C6
:105040000ED08F4FB8420BD0B0F1804F08D08D4FAB
:10505000B84205D08C4FB84202D08C4FB84206D12E
:105060004FF6DF77394046F01007394305E04FF639
:105070005F77394044F01007394302830184F0BD63
:10508000028B4FF6F3731A400283028B0A430283AA
:105090007047F0B50C46154600220021068C4FF6ED
:1050A000FE773E400684028B018C4FF60C76324030
:1050B0007E1C06EA03162E433243704EB0420ED0D9
:1050C0006F4EB0420BD0B0F1804F08D06D4EB04261
:1050D00005D06D4EB04202D06C4EB04206D14FF6B4
:1050E000FD76314044F00106314305E04FF6F57698
:1050F000314044F00106314302830184F0BD70B5B4
:1051000005460C465D4885420ED05D4885420BD071
:10511000B5F1804F08D05B48854205D05A4885429A
:1051200002D05A48854200D100E000BF208850B923
:105130002389A28861882846FFF7ABFFE1882846CB
:10514000FFF79EFF25E0208804280AD12389A28842
:1051500061882846FFF753FFE1882846FFF742FFA2
:1051600017E0208808280AD12389A2886188284668
:10517000FFF7FBFEE1882846FFF7EEFE09E02389F2
:10518000A28861882846FFF7A6FEE1882846FFF737
:1051900095FE70BD2DE9F04105460C46002601271D
:1051A000608808B9022600E00026A088012801D105
:1051B000022700E001272088A0B92389A2886188FE
:1051C0002846FFF766FFE1882846FFF759FF238945
:1051D0003A4631462846FFF712FFE1882846FFF796
:1051E00001FF13E02389A28861882846FFF707FFA3
:1051F000E1882846FFF7F6FE23893A4631462846DD
:10520000FFF747FFE1882846FFF73AFFBDE8F08146
:105210000A884B881A438B881A43CB881A430B8918
:105220001A434B891A438B891A43A0F844207047CC
:105230004FF6FF71818000210180C18041800172A1
:1052400070470021018041808180C18001814181BE
:105250008181C181704700210180418001218180CD
:105260000021C1800181704700210180418081803F
:10527000C18001814181818170470000002C014083
:10528000003401400004004000080040000C0040D1
:1052900021B1028842F00102028004E002884FF648
:1052A000FE731A400280704731B1B0F8442042F4D6
:1052B0000042A0F8442005E0B0F84420C2F30E02FA
:1052C000A0F8442070471AB183890B43838102E020
:1052D00083898B43838170478182704741EA02034F
:1052E000A0F8483070471AB183890B43838102E0EC
:1052F00083898B438381704701894FF6F87211408F
:10530000018170470A46002101894FF68F731940C9
:1053100011430181704730B504460D4629462046A9
:10532000FFF7F0FF208940F00700208130BD2DE914
:10533000F04104460D4616461F46602D06D13B46F9
:10534000012231462046FFF75AFE05E03B46012286
:1053500031462046FFF79DFE29462046FFF7D2FF43
:10536000208940F007002081BDE8F08130B50C466F
:1053700000210189C9B24FF6FF7505EA03251543DF
:1053800025432943018130BD2DE9F04105460E46F4
:1053900017469846002443463A4631462846FFF7CA
:1053A000E5FF2C894FF6F870044044F007044FF6EF
:1053B0008F70044044F070042C81BDE8F081F0B59A
:1053C00004460D4616461F463B46324629462046B1
:1053D000FFF7CCFF208940F480402081F0BD01859B
:1053E000828270470A46002101884FF68F73194068
:1053F000114301807047F0B50C4615461E4600214A
:10540000002200230189028B038C4FF6F877394084
:1054100021434FF6FC473A4040F201173A434FF61A
:10542000DD773B404FF6FF7707EA06172F433B43F4
:10543000018102830384F0BD0A460021018B4FF6EF
:105440008F7319401143018370470A460021018B75
:1054500048F6FF7319404FF6FF7303EA022319431E
:10546000018370470A460021818B4FF68F731940E4
:105470001143818370470A460021818B48F6FF73F0
:1054800019404FF6FF7303EA0223194381837047E3
:1054900021B1028842F08002028004E002884FF6C7
:1054A0007F731A400280704721B1828842F0040263
:1054B000828004E082884FF6FB731A408280704736
:1054C00021B1828842F00802828004E082884FF68F
:1054D000F7731A408280704721B1828842F001023E
:1054E000828004E082884FF6FE731A408280704703
:1054F0000A460021018B4FF6F773194011430183CF
:1055000070470A460021018B4FF2FF7319404FF696
:10551000FF7303EA02231943018370470A460021FF
:10552000818B4FF6F77319401143818370470A4608
:105530000021818B4FF2FF7319404FF6FF7303EA8E
:1055400002231943818370470A460021018B4FF6DD
:10555000FB7319401143018370470A460021018BF8
:105560004FF6FF3319404FF6FF7303EA0223194346
:10557000018370470A460021818B4FF6FB73194067
:105580001143818370470A460021818B4FF6FF3318
:1055900019404FF6FF7303EA0223194381837047D2
:1055A0000A460021018B4FF67F7319401143018396
:1055B00070470A460021018BC1F30E014FF6FF73BD
:1055C00003EA02231943018370470A460021818BB5
:1055D0004FF67F7319401143818370470A460021BB
:1055E000818BC1F30E014FF6FF7303EA02231943C7
:1055F000818370470A460021018C4FF6FD731940E4
:105600001143018470470A460021018C4FF6F7735D
:1056100019401143018470470A460021018C4FF65E
:10562000DF7319404FF6FF7303EA02131943018435
:1056300070470A460021018C4FF67F7319404FF6E0
:10564000FF7303EA02131943018470470A460021DD
:10565000018C4FF6FF5319404FF6FF7303EA022304
:105660001943018470470A460021018C4FF2FF73F1
:1056700019404FF6FF7303EA022319430184704770
:105680000A460021018C4DF6FF7319404FF6FF7357
:1056900003EA023319430184704730B50023012423
:1056A0008C40A3B2048C9C430484048C02FA01F560
:1056B000ADB22C43048430BD30B5002304248C40AB
:1056C000A3B2048C9C430484048C02FA01F5ADB2AD
:1056D0002C43048430BD70B50346002000241846D6
:1056E000183001258D40ACB21D8CA5431D8409B135
:1056F000082909D100EB6100056825F070050560F7
:105700000568154305600EE00D1FC5F34E052844DE
:10571000056825F4E045056005684FF6FF7606EA62
:1057200002263543056070BD21B1028842F00202B5
:10573000028004E002884FF6FD731A400280704731
:1057400021B1028842F00402028004E002884FF690
:10575000FB731A400280704721B1828842F08002B8
:10576000828004E082884FF67F731A4082807047FF
:1057700002884FF6F7731A40028002880A430280BB
:10578000704782884FF68F731A40828082880A435E
:105790008280704702894FF6F8731A4002810289AD
:1057A0000A430281704702894FF67F731A400281D3
:1057B00002890A430281704781847047818570475E
:1057C000818670470187704781877047A0F8401035
:1057D000704702884FF6FF431A40028002880A434E
:1057E000028070470146888E70470146088F7047D7
:1057F0000146888F70470146B1F840007047014666
:10580000888C70470146088D704702460020138A35
:105810000B400BB1012000E000207047CA43028218
:10582000704730B50246002000230024158A05EA9F
:105830000103958905EA010413B10CB1012000E0D0
:10584000002030BDCA4302827047000010B50446F4
:10585000FA48844208D101214015FEF70DFE0021CF
:105860006015FEF709FE17E0F548844208D10121D2
:105870000015FEF701FE00212015FEF7FDFD0BE0EF
:10588000F048844208D10121C803FEF7F5FD00214C
:105890004FF40040FEF7F0FD10BD30B50246002089
:1058A00000235068E84C20400D790C6844EA052438
:1058B000204350609068E54C2040D1E902542C43CD
:1058C0004D7944EA450420439060D06A20F470008A
:1058D0000C7C641EE4B2234340EA0350D06230BD26
:1058E00000210160017141718160C1600121017479
:1058F000704721B1826842F00102826003E0826851
:1059000022F001028260704721B1826842F4807205
:10591000826003E0826822F480728260704710B572
:105920000023CBB21AB144681C43446002E04468CF
:105930009C43446010BD816841F00801816070475C
:10594000014600208A6802F008020AB1012000E046
:1059500000207047816841F0040181607047014672
:1059600000208A6802F004020AB1012000E0002051
:10597000704721B1826842F4A002826003E082682D
:1059800022F4A00282607047014600208A6802F477
:1059900080020AB1012000E00020704710B50A46DD
:1059A00000210023416821F46041531E41EA433144
:1059B000416010BD21B1426842F40062426003E0E0
:1059C000426822F4006242607047F0B504460D461A
:1059D00000200021092D11DDE068A5F10A0606EB83
:1059E0004607072606FA07F18843A5F10A0606EBE3
:1059F000460603FA06F10843E0600CE0206905EB77
:105A00004507072606FA07F1884305EB450603FA22
:105A100006F108432061072A0FDA606B561E06EB79
:105A200086071F2606FA07F18843561E06EB8606F0
:105A300005FA06F10843606322E00D2A0FDA206BB5
:105A4000D61F06EB86071F2606FA07F18843D61FE6
:105A500006EB860605FA06F10843206310E0E06ACB
:105A6000A2F10D0606EB86071F2606FA07F188430A
:105A7000A2F10D0606EB860605FA06F10843E06280
:105A8000F0BD21B1826842F48012826003E0826836
:105A900022F48012826070470146C86C80B2704761
:105AA00066484C300068704721B1426842F4806219
:105AB000426003E0426822F480624260704721B194
:105AC000426842F48052426003E0426822F480520D
:105AD000426070470A460021816821F4E041114389
